:020000040800F2
:1000000060040020C10100086B160008A509000863
:1000100069160008DD05000815250008000000002D
:100020000000000000000000000000002522000881
:10003000D5060008000000006D16000879230008AE
:10004000DB010008DB010008DB010008DB01000820
:10005000DB010008DB010008DB010008DB01000810
:10006000DB010008DB010008DB010008DB01000800
:10007000DB010008DB010008DB010008DB010008F0
:10008000DB010008DB010008DB010008DB010008E0
:10009000DB010008DB010008DB010008DB010008D0
:1000A000DB010008DB010008DB010008DB010008C0
:1000B000DB010008DB010008DB010008DB010008B0
:1000C000DB010008DB010008DB010008DB010008A0
:1000D000DB010008DB010008DB010008DB01000890
:1000E000DB010008DB010008DB010008DB01000880
:1000F000DB010008DB010008DB010008DB01000870
:10010000DB010008DB010008DB010008DB0100085F
:10011000DB010008DB010008DB010008DB0100084F
:10012000DB010008DB010008DB010008DB0100083F
:10013000DB010008DB010008DB010008DB0100082F
:10014000DB010008DB010008DB010008DB0100081F
:10015000DB010008DB010008DB010008DB0100080F
:10016000DB010008DB010008DB010008DB010008FF
:10017000DB010008DB010008DB010008DB010008EF
:10018000DB010008DB010008DB010008DB010008DF
:10019000DB010008DB010008DB010008DB010008CF
:1001A000DB010008DB010008DB010008DFF80CD0F0
:1001B00000F002FA00480047F1280008600400201F
:1001C0000648804706480047FEE7FEE7FEE7FEE7F1
:1001D000FEE7FEE7FEE7FEE7FEE7FEE7D9230008BD
:1001E000AD0100082DE9FE4F804681EA0300C00FF3
:1001F0000C46009021F0004123F00045B8EB0200CE
:10020000A94105D24046214690461C460B4602466F
:1002100023F00040104347D0270DC7F30A00C3F373
:100220000A510290401A019040286BDAC3F3130080
:1002300040F4801B0098924620B10023D2EB030AC1
:1002400063EB0B0B01985946C0F14002504600F099
:1002500025F906460D4650465946019A00F03DF9EB
:1002600010EB08006141002487EA115284EAE77329
:100270001A4340D0009A62B3019A012A4FEA07520A
:1002800015DC001B61EB02014FF0004202EA07524D
:10029000CDE90042001C41F5801132462B4600F0AA
:1002A0003DF903B0BDE8F08F40462146F9E7001B59
:1002B00061EB0201001C41F5801300185B4120181E
:1002C000A2F5001747EB030140EAD570B6196D415E
:1002D00011E06D084FEA360645EAC0754FEA07524D
:1002E000001B61EB0201001C41F5801149084FEA37
:1002F00030000019514132462B4603B0BDE8F04FA3
:1003000000F0FDB80098012240000023D0EB02026B
:1003100063EBE073009821464FEAE074B8EB00000D
:1003200061EB0401E9E783F000435BE781F0004102
:1003300058E72DE9F04D81EA030404F0004B21F069
:10034000004514464FF0000A23F0004150EA050230
:1003500020D054EA01021DD0C5F30A570246C5F366
:100360001303C1F31300C1F30A5640F4801543F49C
:100370008013A7EB0608101BD64608F2FD3873EB76
:10038000050002D308F1010801E092185B41B8F1C1
:10039000000F03DA00200146BDE8F08D00204FF485
:1003A0008011064684460EE0171B73EB050705D344
:1003B000121B63EB050306434CEA010C49084FEAA4
:1003C000300092185B4150EA0107EDD152EA030078
:1003D00012D082EA040083EA0501084305D0101B0D
:1003E000AB4106D20122002306E000224FF0004379
:1003F00002E06FF0010253101AEB06004CEB0851BB
:1004000010EB0A0041EB0B01BDE8F04D00F077B8AE
:100410000EB5C10F80EAE0700844CA07002140F21F
:1004200033438DE80E000A460B4600F077F803B020
:1004300000BD70B5C1F30A5201F000450024C1F3BC
:10044000130140F2FF3341F480119A4201DA002097
:1004500070BD40F233439A42A2F2334203DC52426F
:1004600000F02BF800E090402C43F1D0404270BDEA
:1004700030B50B46014600202022012409E021FA74
:1004800002F59D4205D303FA02F5491B04FA02F571
:100490002844151EA2F10102F1DC30BD202A04DB44
:1004A000203A00FA02F1002070479140C2F1200387
:1004B00020FA03F3194390407047202A04DB203AC6
:1004C00021FA02F00021704721FA02F3D040C2F174
:1004D00020029140084319467047202A06DBCB17BB
:1004E000203A41FA02F043EAE07306E041FA02F3EF
:1004F000D040C2F12002914008431946704710B520
:10050000141E73F1000408DA401C41F10001921836
:100510005B411A4301D120F0010010BD2DE9F04DDF
:1005200092469B4611B1B1FA81F202E0B0FA80F234
:1005300020329046FFF7B2FF04460F4640EA0A0019
:1005400041EA0B0153465A46084313D0114653EA79
:10055000010019D0C8F140025046FFF7AEFF054632
:100560000E46504659464246FFF798FF084305D0CD
:10057000012004E020463946BDE8F08D0020054307
:1005800046EAE0762C4337430A986305E40AA0EB79
:1005900008000022FD0A44EA47540A3002D5002030
:1005A0000146E9E7010510196941DDE9084500192F
:1005B0006941BDE8F04DA2E7064C074D06E0E06852
:1005C00040F0010394E8070098471034AC42F6D39A
:1005D000FFF7F0FD503E0008703E0008FEE710B542
:1005E0000121CC05204601F051F82046BDE810401D
:1005F000002101F04BB8000001460020024A526879
:100600000A4200D00120704700B0024030B50024FB
:100610002A4B19682A4A1140196019680268114367
:100620001960596B21F007015963596B42681143F6
:1006300059634168002928D001292DD0022930D0E2
:10064000032933D0C1680A010169090244692403FE
:100650008568214315430D43996B0D439D63816963
:10066000D963196C6FF30D011964196CC2691143D8
:100670001964818C09045A6C02F040425A645A6C25
:10068000006A02430A435A6430BDC1680A02018A03
:100690000904047D2406DBE7C1680A02018A090413
:1006A000D6E7C1684A010169C902D1E7C1684A01B8
:1006B000016989024469E403CAE7000000B002400E
:1006C000FCE0FCFF0248016841F001010160704755
:1006D00000B002407047000070B586B001210846A6
:1006E00000F0C6FF0121102001F008F81E4E07227D
:1006F0000A21304600F03CF907220921304600F07B
:1007000037F900248DF8164001208DF817000225D6
:100710008DF81450410204918DF8155004A930460B
:1007200000F0E8F88DF814506802049004A93046EF
:1007300000F0E0F84FF4E1300090ADF80440ADF87F
:100740000640ADF80840ADF80C400C20ADF80A00AA
:10075000064C6946204601F07BFE0121204601F04F
:1007600063FE06B070BD00000000024000100140B2
:1007700001B503480099416041680029FCD108BDDA
:100780003800002000224FF0204310280AD0B0F596
:10079000807F09D0B0F5805F09D0D3F8580181433C
:1007A00009D107E0586EFAE7D3F88400F7E7D3F8E9
:1007B000A400F4E70122104670470000D0E90012BF
:1007C00011438268C068521E520142EA4020014330
:1007D0000148016070470000500100A070B5046836
:1007E000A100A1F1C041D1F84011CE0BF603D0E930
:1007F00001121143D0E903231A4311434269C3692B
:1008000011438269056A11431943426A294311431E
:1008100031434FF02046002C3CD0D6F840416FF3D6
:100820000E042B4322431343C6F840310268920062
:10083000A2F1C042C2F84011016871B38900A1F170
:10084000C041D1F8481101F07043816A0A684C68D0
:10085000521E641E42EA04148A68521E44EA0224AC
:100860000A8A521E44EA02421A43D6F8483103F07B
:100870007043CC68898A641E2403491E44EA0151EE
:100880001943C6F8481100688000A0F1C040C0F8C4
:10089000482170BDC6F84011CEE7FFE7D6F84811F1
:1008A00001F07041806A02684368521E5B1E42EA92
:1008B00003138268521E43EA0223C268521E43EAAF
:1008C0000233028A521E43EA0243828A007E521E8B
:1008D00043EA0252401E42EA00600843C6F848015B
:1008E00070BD000002490A6842EA40000860704793
:1008F000540100A02DE9F041002201274FF0030C24
:1009000007FA02F50B682B40AB422CD10668530066
:100910000CFA03F4A64306600E79D0F800809E40DE
:1009200046EA080606600E79012E01D0022E12D189
:100930008668A64386604E79D0F808809E4046EAD5
:10094000080686604668AE43466045688E799640E4
:10095000B6B235434560C568A543C560CC799C40B7
:10096000C3681C43C460521C102AC9D3BDE8F0817F
:1009700010B54B07DB0E9A40C90800EB8100016AF5
:100980000F249C40A1430162016A1143016210BD22
:100990004183704701837047014800887047000019
:1009A00048000020FEE7002904D0018841F480615E
:1009B00001807047018821F4806101807047C9433C
:1009C00081827047002904D0018841F00101018033
:1009D0007047018821F001010180704710B5154969
:1009E00088420AD101214C05204600F079FE2046BC
:1009F000BDE81040002100F073BE0F4988420AD1C3
:100A000001218C05204600F06BFE2046BDE8104019
:100A1000002100F065BE094988420AD10121CC05B8
:100A2000204600F05DFE2046BDE81040002100F0A9
:100A300057BE10BD0054004000580040005C00400C
:100A4000002904D0018841F4807101807047018839
:100A500021F4807101807047002904D0018841F49D
:100A6000007101807047018821F400710180704796
:100A70000CB50246002000920A0F019221F07F413E
:100A8000019A002A03D0009A1432009203E0090C64
:100A9000009A18320092009A12680A4200D001208F
:100AA0000CBD00007FB504460D46A08820F03F062F
:100AB000684600F031FE02982749B0FBF1F189B297
:100AC0000E43A680228822F001022280234B2A684E
:100AD0009A4209D85200B0FBF2F080B2042800D24A
:100AE0000420491C218423E0EB88A3F53F46FF3E08
:100AF0000BD002EBC20303EB0212B0FBF2F080B2A8
:100B000040F48040020506D007E002EB4202B0FB51
:100B1000F2F080B2F6E740F0010040F400404FF4FC
:100B2000967251434FF47A72B1FBF2F1491C218461
:100B3000A083208840F00100208020884FF6F53106
:100B40000840A9886A89114301432180A88929891D
:100B5000084320817FBD000040420F00A0860100B5
:100B600008B500900098084400900098008808BDDF
:100B7000008AC0B27047002A02D041F0010101E0B2
:100B800001F0FE010182704701827047002904D004
:100B9000018841F40041018070470188C1F30E01D2
:100BA000018070477FB50546174C01212046FFF7AD
:100BB00053FF01212046FFF7E9FF00212046FFF700
:100BC000E5FF2046FFF70AFF0020ADF804004BF6D2
:100BD000FF72ADF80620ADF808002015ADF80A0048
:100BE0000001ADF80C000948009001212046FFF7F4
:100BF000E9FE69462046FFF755FF294604A001F0AB
:100C00008BFC04B0012070BD00540040801A060027
:100C10003C3C2D4932432D4552524F522D3E3E20F1
:100C20004932432063616C6C6261636B2065727250
:100C30006F7220636F6465203D2025640A00000008
:100C400030B587B00121480500F03CFD01210220AC
:100C500000F00EFD4020059002208DF818000320C2
:100C60008DF8190001208DF81A0000248DF81B4022
:100C7000194D042206212846FFF77AFE05A92846C9
:100C8000FFF738FE80210591042207212846FFF74F
:100C90006FFE05A92846FFF72DFE104D2846FFF7E9
:100CA0009DFEADF808404BF6FF71ADF80A10ADF8A7
:100CB0000C402915ADF80E100901ADF810100849C7
:100CC000019101212846FFF77DFE01A92846FFF783
:100CD000E9FE07B030BD00000004024000540040AF
:100CE000801A060070B58AB0C0F30744C0F3072528
:100CF000C6B2FFF774FC4FF4403000900120019021
:100D00000494039502960F2005900B488068069086
:100D1000002007904FF4F07008904FF4487009904D
:100D20006846FFF773FCFFF7CDFC0220FFF764FC79
:100D30000028FAD00AB070BD2400002010B4203A78
:100D4000D3B2054A12691468D2885A4304EB4202AE
:100D500010BC00F025B80000240000202DE9F0416F
:100D600080460D4600240D4E4FF4487708E021469A
:100D70004046FFF7E3FF30698088204484B26D1C51
:100D8000BC4208D22A78002A05D030698188081927
:100D900080B28842EBD2BDE8F08100002400002040
:100DA0002DE9F04300254FF416635843DFF888809F
:100DB000D8F808C0D8F8107038E000232EE00C26D0
:100DC000B4FBF6F6F6004FF0800909FA06F932F89E
:100DD000156049FA03F919EA060F01D10C2C08D95C
:100DE0004FF0010909FA03F916EA090F0BD10C2C8F
:100DF00009D901EB41066644D8F804403452064450
:100E0000240CB47008E001EB41066644D8F80040B9
:100E100034520644240CB470491C5B1CBC889C42B0
:100E2000CDD8BB88C3F5487319446D1CFB88AB4211
:100E3000C3D8BDE8F0830000240000202DE9FC5F4A
:100E4000012140F2FF1000F013FC4FF00408CDF830
:100E5000008002208DF805008DF8040000208DF838
:100E600006008DF807006946AA48FFF743FD0E22E9
:100E70000221A848FFF77CFD4FF00809CDF800904B
:100E80006946A448FFF736FD0E220321A148FFF76B
:100E90006FFD4FF4807ACDF800A069469D48FFF7BA
:100EA00029FD0E2208219B48FFF762FD01240094D2
:100EB00069469948FFF71EFD092200219648FFF771
:100EC00057FD4FF4006BCDF800B069469348FFF72B
:100ED00011FD0E220B219148FFF74AFD20030090DF
:100EE00069468E48FFF706FD0E220C218B48FFF75E
:100EF0003FFD0220009069468748FFF7FBFC09226E
:100F000001218548FFF734FD402500956946844856
:100F1000FFF7F0FC0E2206218148FFF729FD202073
:100F2000009069467F48FFF7E5FC0E2205217D48C9
:100F3000FFF71EFD009569467A48FFF7DBFC0E229D
:100F400006217848FFF714FD600300906946714858
:100F5000FFF7D0FC0E220D216E48FFF709FDA60217
:100F6000009669466E48FFF7C5FC09220A216C48C5
:100F7000FFF7FEFCE003009069466648FFF7BAFC05
:100F80000E220F216348FFF7F3FC00946946664880
:100F9000FFF7B0FC0E2200216348FFF7E9FC802731
:100FA000009769466148FFF7A5FC0E2207215F48BC
:100FB000FFF7DEFCCDF8008069465B48FFF79AFC3E
:100FC0000E2202215848FFF7D3FC4FF01008CDF84D
:100FD000008069465348FFF78DFC0E2204215148DA
:100FE000FFF7C6FC2003009069464D48FFF782FCDE
:100FF0000E220C214A48FFF7BBFC00954C4D694678
:101000002846FFF777FC0E2206212846FFF7B0FCA2
:10101000CDF800B069464248FFF76CFC0E220B2168
:101020003F48FFF7A5FCCDF8008069463E48FFF732
:1010300061FC0E2204213C48FFF79AFCCDF8009099
:1010400069463648FFF756FC0E2203213348FFF766
:101050008FFCCDF800A069462F48FFF74BFC0E220D
:1010600008212D48FFF784FC4FF40079CDF800905B
:1010700069462948FFF73EFC0E2209212648FFF762
:1010800077FC009769462648FFF734FC0E220721BB
:101090002348FFF76DFC009669462348FFF72AFCBA
:1010A0000E220A212048FFF763FCCDF80090694624
:1010B0001D48FFF71FFC0E2209211B48FFF758FCB3
:1010C00000961C4E69463046FFF714FC0E220A219A
:1010D0003046FFF74DFCCDF8008002208DF805006A
:1010E0008DF8044000208DF806008DF80740694611
:1010F0002846FFF7FFFB009769462846FFF7FAFBF3
:1011000010212846FFF746FC80212846FFF742FCC5
:10111000BDE8FC9F001C02400004024000000240A9
:101120000018024000100240002002400008024067
:10113000000C0240001402400148006970470000A2
:101140002400002000B58FB00121880600F0D6FAF7
:101150000121C80500F08CFAFFF770FE00F026FDB3
:10116000002000900190029003900C900D900E9042
:10117000062207214FF4D07000F04CFB4FF40030F2
:1011800000F038FB012000F03FFB3D2000F016FB93
:101190000028FAD00620049001200590182006901F
:1011A000032007904FF44E70089040F2E31009902E
:1011B00040F242300A9040F2E7100B90684600F08F
:1011C000E9F8012000F0C6F80FB000BD30B591B0CD
:1011D000192001904FF44E7002900420039040F2C9
:1011E000E310049001200590FF2006900020079056
:1011F000089009900A904FF480600B9005200C90A5
:1012000040F663100E90C01E0F904FF4F0701090D7
:101210004FF050400D90144C01A9204600F01CF9ED
:1012200012490D914FF4C0610B9107210C910E4DA5
:1012300001A98035284600F00FF9012000F058F987
:101240000121204600F0FCF80121284600F0F8F8C2
:10125000012000F04DF9064800F012F8012000F0DE
:1012600089F811B030BD000084680140009411D0AD
:1012700040000020014A10605160704724000020A7
:101280000149086170470000240000200649002839
:1012900004D0064888600120C86070474FF0504075
:1012A00088600020C860704724000020009411D09E
:1012B00010B50949C968002908D00146074800F05F
:1012C000BDF8BDE81040012000F012B90146034806
:1012D000803800F0B3F8F4E72400002004690140EE
:1012E0002DE9FC410121882000F0C2F94FF480650E
:1012F000009501218DF8041000208DF806008DF86E
:1013000007108DF80500114F69463846FFF7F2FACD
:101310006C00009469463846FFF7ECFA66000096C8
:1013200069463846FFF7E6FA0094094F69463846A1
:10133000FFF7E0FA054918310D800C800E80214638
:101340003846FFF725FBBDE8FC810000001C024089
:10135000000C02400649002804D0086840F0010053
:1013600008607047086820F00100086070470000BE
:10137000186801400649002804D0086840F480300D
:1013800008607047086820F48030086070470000EB
:101390001868014030B5264A136826490B4013608F
:1013A000038A1B04146845692C431C431460121DF6
:1013B00013680B401360038B1B041468C5692C432E
:1013C0001C431460121D13680B401360038C1B0434
:1013D0001468456A2C431C431460121D13680B40AB
:1013E0001360018D09041368C46A23430B4313601F
:1013F000111D0A68104B1A400A60D0E900231A43F5
:10140000D0E9023423431A430B681A430A60416B44
:101410000A02018E0B04064924310C6804F07F4453
:101420000C600C68806B134304431C430C6030BD9C
:101430000868014000F800F08F88FE0F4161704796
:10144000002904D0016841F0010101607047016882
:1014500021F001010160704770B58A881204436869
:1014600003F4704343600B68134343608A8912049A
:10147000836803F4704383608B681343836002695D
:1014800022F0070202610A690261CA6913020A8C2A
:10149000120491F8244024068569002585618E692F
:1014A00022431E4316438661426922F0FF024261D5
:1014B0004A694261C26940F207739A43C261D1E945
:1014C0000A231A43C261826A85620A6B82620A8FAA
:1014D0001204C36A03F0E023C3624B6B1343C3627D
:1014E000026B6FF30A020263C96B016370BD0000F7
:1014F0000149086070470000246801401CB504469B
:10150000062269463B2000F07EF89DF801009DF818
:10151000001040EA012020809DF803009DF8021091
:1015200040EA012060809DF805009DF8041040EA23
:101530000120A0801CBD1CB504460622694643203C
:1015400000F061F89DF801009DF8001040EA0120CC
:1015500020809DF803009DF8021040EA0120608081
:101560009DF805009DF8041040EA0120A0801CBDF4
:1015700008B50020009001226946752000F043F86C
:101580009DF80010682904D0044800F0C5FF002031
:1015900008BD03A000F0C0FF012008BDF43D000815
:1015A0003C3C2D4932432D494E464F2D3E3E204D69
:1015B000505536303530204944203D2025640D0AF1
:1015C0000A00000010B500214FF47A720020401C80
:1015D0009042FCDB491C9142F8DB00216B2000F0BB
:1015E0003BF80721192000F037F806211A2000F0F7
:1015F00033F801211C2000F02FF81821BDE810401D
:101600001B2000F029B80B460146682000F00BBEF5
:1016100038B50446022269464120FFF7F4FF9DF8E1
:1016200001009DF8001040EA012000B243F2903121
:101630000844FEF7EDFE0022054BFEF77AFE00227D
:10164000044BFEF770FEFEF7F4FE208038BD00006C
:101650000080714000002A4013B5014601AB012211
:10166000682000F0FFFD1CBDFEE7704770470000DA
:10167000054A002903D011680143116070471168C1
:10168000814311607047000030380240054A00294C
:1016900003D01168014311607047116881431160E4
:1016A0007047000010380240054A002903D0116835
:1016B0000143116070471168814311607047000059
:1016C00038380240054A002903D0116801431160EF
:1016D0007047116881431160704700004038024034
:1016E000054A002903D01168014311607047116851
:1016F000814311607047000020380240054A0029EC
:1017000003D0116801431160704711688143116073
:10171000704700004438024070B5244B196801F04E
:101720000C01234C00291ED0224E04291DD008296B
:101730001DD00460196801F0F00109091E4A545CCB
:101740000168E14041601C6804F4E054A40A145D9F
:1017500021FA04F484601B6803F460435B0BD25CE1
:10176000D140C16070BD0460E4E70660E2E70F4A63
:10177000121F1168C1F38055116801F03F0135B1A6
:10178000B6FBF1F11468C4F38814614305E0B4FBBF
:10179000F1F11468C4F3881461431268C2F3014282
:1017A000521C5200B1FBF2F10160C3E7083802405D
:1017B0000024F40040787D0114000020024600203F
:1017C000510901290BD002290DD00949096802F0FD
:1017D0001F02012393400B4200D0012070470449AF
:1017E00074390968F3E70249091F0968EFE7000047
:1017F00074380240034A116821F4403101431160FA
:10180000704700008C3802400149086770470000AB
:1018100000004742800140EA0160024940EA02704C
:1018200008607047883802402DE9FC5F0121FC20E8
:10183000FFF71EFF02208DF804008DF80500002040
:101840008DF806008DF80700012000906946D14808
:10185000FFF750F80C220021CE48FFF789F802204C
:1018600000906946CB48FFF745F80C220121C94892
:10187000FFF77EF8042000906946C648FFF73AF863
:101880000C220221C348FFF773F808200090694634
:10189000C048FFF72FF80C220321BE48FFF768F875
:1018A000102700976946BB48FFF724F80C22042153
:1018B000B848FFF75DF84FF02008CDF80080694682
:1018C000B448FFF717F80C220521B248FFF750F88B
:1018D0004FF48059CDF800906946AE48FFF70AF8FA
:1018E0000C221146AB48FFF743F84FF4005ACDF8ED
:1018F00000A06946A748FEF7FDFF0C220D21A54870
:10190000FFF736F8BD0200956946A248FEF7F2FFE0
:101910000C220E219F48FFF72BF86C0000946946BB
:101920009C48FEF7E7FF0C220F219A48FFF720F8AA
:101930000120009069469848FEF7DCFF0C22002148
:101940009548FFF715F80220009069469248FEF787
:10195000D1FF0C2201219048FFF70AF80095694653
:101960008E48FEF7C7FF0C220E218C48FFF700F8C7
:10197000009469468948FEF7BDFF0C220F21874875
:10198000FEF7F6FF0120009069468448FEF7B2FF9B
:101990000C2200218148FEF7EBFF022000906946EF
:1019A0007E48FEF7A7FF0C2201217C48FEF7E0FFEE
:1019B0004FF0800BCDF800B069467948FEF79AFFEA
:1019C0000C2207217648FEF7D3FFE6110096694600
:1019D0007348FEF78FFF0C2208217148FEF7C8FFFD
:1019E000A011009069466E48FEF784FF0C22092181
:1019F0006B48FEF7BDFF6011009069466848FEF72E
:101A000079FF0C220A216648FEF7B2FF20110090F0
:101A100069466348FEF76EFF0C220B216048FEF713
:101A2000A7FFCDF8009069465D48FEF763FF0C22E2
:101A300011465B48FEF79CFFCDF800A06946584868
:101A4000FEF758FF0C220D215548FEF791FF009537
:101A500069465348FEF74EFF0C220E215048FEF710
:101A600087FF009469464E48FEF744FF0C220F2181
:101A70004B48FEF77DFF009669464848FEF73AFF5F
:101A80000C2208214548FEF773FFA011009069461B
:101A90004248FEF72FFF0C2209214048FEF768FF5D
:101AA0006011009069463D48FEF724FF0C220A2190
:101AB0003A48FEF75DFF402000903A4D69462846BF
:101AC000FEF718FF0C2206212846FEF751FF00976B
:101AD00069463148FEF70EFF0C2204212E48FEF71E
:101AE00047FFCDF8008069462B48FEF703FF0C2224
:101AF00005212948FEF73CFF012000902A4F694646
:101B00003846FEF7F7FE0C2200213846FEF730FF7C
:101B10002011009069461F48FEF7ECFE0C220B21B5
:101B20001C48FEF725FF009469461B48FEF7E2FEBD
:101B30000C220F211848FEF71BFF00966946164835
:101B4000FEF7D8FE0C2208211348FEF711FFCDF84E
:101B500000B069462846FEF7CDFE0C220721284634
:101B6000FEF706FF0220009069460D48FEF7C2FE10
:101B70000C2201210A48FEF7FBFE01200090694675
:101B80000748FEF7B7FE0C2200210548FEF7F0FEDD
:101B9000BDE8FC9F0014024000180240000C024007
:101BA00000100240001C02400008024000B593B043
:101BB000FFF73AFE01210846FFF776FD022001906B
:101BC0000722029204210391049205900690079047
:101BD00001200890002009900A9110210B914021CA
:101BE0000C914FF4C0710D910E904FF400610F9164
:101BF00010908800119001A8129008A8FEF7EEFD41
:101C000000F002F813B000BD2DE9FF410125009559
:101C10000826019602950024039420210120FEF756
:101C2000B1FD0028F9D16846FEF7C8FD0A2000F092
:101C300041F8022000900196029503942021012092
:101C4000FEF7A0FD0028F9D16846FEF7B7FD032096
:101C50000090019604270297039420210120FEF7AB
:101C600091FD0028F9D16846FEF7A8FD202101204A
:101C7000FEF788FD0028F9D16846FEF79FFD40F287
:101C80003120009701960295039020210120FEF754
:101C900079FD0028F9D16846FEF790FD40F26A50C0
:101CA000FEF720FE20210120FEF76CFD0028F9D16F
:101CB000BDE8FF8101B581B0054901984843009016
:101CC00002E00098401E009000980028F9D10CBD59
:101CD000A08601002DE9FF4F83B0044616461D463D
:101CE00000200290F54801904FF40039DFF8D0B39E
:101CF00009E00198411E019105D207B00720BDE817
:101D0000F04FFEF74FBF49465846FEF7B1FE002898
:101D1000EFD101215846FEF793FE4FF4617ACDF8DA
:101D200004A0E84F09E00199481E019005D207B0D0
:101D30000820BDE8F04FFEF735BF39465846FEF79C
:101D400097FE0128EFD14FEA440808F0FF01002276
:101D50005846FEF710FFCDF804A0DA4C641C09E0E9
:101D60000198411E019105D207B00920BDE8F04F4E
:101D7000FEF718BF21465846FEF77AFE0128EFD13C
:101D800014215846FEF7ECFE18215846FEF7E8FEEF
:101D9000CDF804A009E00198411E019105D207B0D9
:101DA0000A20BDE8F04FFEF7FDBEC649C4487F31AA
:101DB000FEF75EFE0128EED1C1480499FEF7E4FE6D
:101DC000CDF804A0DFF8F8B209E00198411E0191B6
:101DD00005D207B00B20BDE8F04FFEF7E3BEB949CE
:101DE00058467F31FEF744FE0128EED101215846C6
:101DF000FEF726FECDF804A009E00198411E0191EE
:101E000005D207B00C20BDE8F04FFEF7CBBE394637
:101E10005846FEF72DFE0128EFD15F4608F0FF017E
:101E200001223846FEF7A7FECDF804A009E001988C
:101E3000411E019105D207B00D20BDE8F04FFEF71D
:101E4000B1BE21463846FEF713FE0128EFD1DFF878
:101E500074B2012E0BF13F0B0FD0022E35D0032EA2
:101E600065D014213846FEF77BFE18213846FEF770
:101E700077FE0024A6F10308F9E000213846FEF7BA
:101E800092FD14213846FEF76BFE18213846FEF706
:101E900067FE01213846FEF7DFFDCDF804A009E01A
:101EA0000199481E019005D207B00E20BDE8F04F01
:101EB000FEF778BE59463846FEF7DAFD0128EFD125
:101EC0003846FEF755FE2870D3E000213846FEF76D
:101ED0006AFD388840F40060388014213846FEF7E7
:101EE0003FFE18213846FEF73BFECDF804A0754CA6
:101EF000E41C09E00199481E019005D207B00F20AB
:101F0000BDE8F04FFEF74EBE21463846FEF7B0FD65
:101F10000128EFD101213846FEF79EFD3846FEF735
:101F200027FE28703846FEF723FE6870A1E01421D2
:101F30003846FEF715FE18213846FEF711FECDF89B
:101F400004A0604CE41C09E00199481E019005D2F0
:101F500007B01020BDE8F04FFEF724BE21463846FA
:101F6000FEF786FD0128EFD100213846FEF71BFD64
:101F70003846FEF7FDFD287001213846FEF76CFD5E
:101F80003846FEF7F5FD6870CDF804A009E0019928
:101F9000481E019005D207B01120BDE8F04FFEF7B2
:101FA00001BE59463846FEF763FD0128EFD1384699
:101FB000FEF7DEFDA8705CE0444540D1CDF804A0FA
:101FC000404EF61C09E00199481E019005D207B069
:101FD0001020BDE8F04FFEF7E5BD31463846FEF76C
:101FE00047FD0128EFD100213846FEF7DCFC3846DA
:101FF000FEF7BEFD01462046641C295401213846E7
:10200000FEF72AFD3846FEF7B3FD661C2855CDF8CD
:1020100004A009E00199481E019005D207B01120E3
:10202000BDE8F04FFEF7BEBD59463846FEF720FD2D
:102030000128EFD13846FEF79BFDA85519E0CDF8F1
:1020400004A009E00198411E019105D207B01220B9
:10205000BDE8F04FFEF7A6BD59463846FEF708FD2D
:102060000128EFD13846FEF783FD2855641CB442A1
:10207000A2D314493846C91CFEF7A1FC0F490191AF
:1020800009E00198421E019205D207B01320BDE875
:10209000F04FFEF787BD49463846FEF7E9FC0028B9
:1020A000EFD101213846FEF77EFC398821F400612A
:1020B0003980029807B0BDE8F08F0000B01E040020
:1020C00000540040010000102DE9F84F81460C46F5
:1020D000174698464FF0000A4F4800904FF40036DC
:1020E0004E4D08E00098411E009104D2BDE8F84F23
:1020F0000120FEF757BD31462846FEF7B9FC0028FF
:10210000F0D101212846FEF79BFC4FF46176009642
:10211000DFF80CB108E00098411E009104D2BDE840
:10212000F84F0220FEF73EBD59462846FEF7A0FCB8
:102130000128F0D14FEA4960010E00222846FEF73F
:102140001AFD0096DFF8D89009F1010908E000981F
:10215000411E009104D2BDE8F84F0320FEF722BDD6
:1021600049462846FEF784FC0128F0D11421284670
:10217000FEF7F6FC18212846FEF7F2FC0096DFF881
:10218000A09009F17F0908E00098411E009104D257
:10219000BDE8F84F0420FEF705BD49462846FEF786
:1021A00067FC0128F0D121462846FEF7EDFC00240B
:1021B00016E0009608E00098411E009104D2BDE8A8
:1021C000F84F0520FEF7EEBC49462846FEF750FCC6
:1021D0000128F0D118F804102846FEF7D5FC641C3D
:1021E000BC42E6D300960E4CE41C08E00098421E68
:1021F000009204D2BDE8F84F0620FEF7D3BC21467A
:102200002846FEF735FC0128F0D101212846FEF7CB
:1022100023FC5046BDE8F88FB01E04000054004077
:102220000100001070472DE9F04706460F46904622
:1022300099460024FEF7B0FB05464B464246394618
:102240003046FFF747FD00280AD0002D08D0214670
:10225000641CE4B2042903D82846FEF789FAECE7A7
:10226000BDE8F0872DE9F04706460F4690469946AF
:102270000024FEF791FB05464B4642463946304660
:10228000FFF722FF00280AD0002D08D02146641C49
:10229000E4B2042903D82846FEF76AFAECE7BDE861
:1022A000F08700001CB50021019100912E4A1068B2
:1022B00040F4803010604FF4A043106800F4003008
:1022C00000900198401C0190009810B90198984224
:1022D000F3D11068800302D50120009000E0009146
:1022E000009801283FD120484030016841F08051DA
:1022F00001601E49086840F4404008601A480830F0
:1023000003680360036843F400430360036843F415
:10231000A0530360041F164B2360136843F08073BF
:10232000136013689B01FCD50A6842F480320A608E
:102330004A68D203FCD50A6842F400320A604A684F
:102340009203FCD50B4A40F205711160016821F03F
:1023500003010160016841F0020101600168C1F3FD
:1023600081010229FAD11CBD0038024000700040F2
:10237000195A4007003C02400020064A52F820103B
:1023800011B1491E42F82010401CC0B20328F5D3F9
:1023900070470000500000200D484FF47A7100682B
:1023A000B0FBF1F0401EB0F1807F01D301200AE0C4
:1023B0004FF0E0214861074AF0201070002088614A
:1023C000072008610020002800D0FEE770470000C9
:1023D0000000002023ED00E010B50F48016841F037
:1023E000010101600C4A00210832116002680B4BA8
:1023F0001A400260031D0A4A1A60026822F4802211
:10240000026005480C300160FFF74CFF05494FF0B2
:102410000060086010BD000000380240FFFFF6FEBB
:102420001030002408ED00E0002904D0818941F437
:10243000005181817047818921F400518181704769
:102440000246002012880A4200D001207047000096
:102450007FB504460D46208A20F44051E8880843A1
:102460002082A08941F20C618843A9882A891143FE
:102470006A8902431143A181A08A20F44071A8898E
:102480000843A0826846FFF747F91E48844202D0FD
:102490001D48844201D1039800E00298A1890904F3
:1024A00008D500EBC00101EB001029684900B0FB22
:1024B000F1F007E000EBC00101EB00102968890092
:1024C000B0FBF1F06422B0FBF2F109010B096FF0EF
:1024D00018056B4300EB8300A3891D044FF0320302
:1024E00007D503EBC000B0FBF2F000F00700084393
:1024F00006E003EB0010B0FBF2F000F00F00084321
:1025000020817FBD0010014000140140C1F308018B
:1025100081807047FEE700000FB4054B10B503A99A
:10252000044A029800F02CF810BC5DF814FB00007F
:10253000CD2800084C0000200FB4084B10B504A9AA
:1025400002AA039800F01CF8044602A9002000F03B
:10255000B8F9204610BC5DF814FB0000C328000841
:1025600002E008C8121F08C1002AFAD1704770475C
:10257000002001E001C1121F002AFBD170470000BA
:102580002DE9FF4F8BB088460546002606E025283A
:102590000BD0DDE90D1290476D1C761C28780028C1
:1025A000F5D10FB03046BDE8F08F0024A146A24619
:1025B0000122AE4900E0044315F8013F203B02FA36
:1025C00003F00842F7D128782A2810D06FF02F02A4
:1025D0002878A0F13001092915D809EB890102EB0F
:1025E000410144F0020400EB01096D1CF0E758F8CA
:1025F000041B5FEA010903D544F40054C9F1000942
:1026000044F002046D1C28782E2817D115F8010F0C
:1026100044F004042A280ED06FF02F022878A0F18D
:10262000300109290AD80AEB8A0102EB410100EBCB
:10263000010A6D1CF2E758F804AB6D1C28786C2871
:102640000FD006DC4C2817D068280DD06A2814D18A
:1026500004E0742810D07A280FD10DE044F400145F
:102660000AE044F4801401E044F4401469788142A3
:1026700002D104F580146D1C6D1C2878692865D082
:1026800006DC00288DD0632827D0642806D15DE0C1
:102690006E2808D073282AD0752877D0DDE90D126E
:1026A0009047761CE0E0C4F30250022809D00328CA
:1026B0000DD0D8F8001004280DD00E6008F10408E1
:1026C000D2E0D8F80010F217C1E90062F6E7D8F8B6
:1026D00000100E80F2E70E70F0E718F8041B8DF87A
:1026E000001000208DF80100EB46012003E058F8AF
:1026F00004BB4FF0FF3061074FF0000701D40AE040
:102700007F1C57450DDA8742FADB1BF807100029BA
:10271000F6D106E07F1C8742FCDB1BF8071000297E
:10272000F8D1DDE90D23A9EB07008146214600F031
:10273000B1F83044C61904E0DDE90D121BF8010BB5
:1027400090477F1EF8D22146484688E058F8040B8F
:10275000C4F302514FF00A0B032900D100B204293F
:1027600000D140B2002802DA40422D2102E02105CA
:1027700005D52B218DF82410012104E006E0E107A6
:1027800010D02021F6E708AF089113E058F8040BA9
:10279000C4F302514FF00A0B032900D180B204297F
:1027A00000D1C0B20021EEE75946FDF761FE30319D
:1027B00007F8011D0028F7D1ADEB070000F1200B51
:1027C000600702D524F4803401E04FF0010ADA45B5
:1027D00002DDAAEB0B0000E00020824600EB0B01BB
:1027E00008980144A9EB01000A90E00306D4DDE952
:1027F0000D2321460A9800F04DF806444FF00009D9
:1028000008E009A911F80900DDE90D12904709F166
:102810000109761C08998945F3DBE0030CD5DDE955
:102820000D2321460A9800F035F8064404E0DDE95E
:102830000D1230209047761CBAF10001AAF1010A6E
:10284000F5DC05E0DDE90D1217F8010B9047761C69
:10285000BBF10001ABF1010BF4DC0A982146DDE984
:102860000D2300F005F806446D1C97E609280100C9
:102870002DE9F041044600251E461746880404D47D
:1028800005E039462020B0476D1C641EF9D5284666
:10289000BDE8F0812DE9F041044600251E46904632
:1028A000C80301D5302700E02027880404D505E0BF
:1028B00041463846B0476D1C641EF9D52846BDE830
:1028C000F0810A68531C0B601070704770B50446A5
:1028D000064DE1B22846FFF719FE80212846FFF792
:1028E000AFFD0028F9D0204670BD00000010014067
:1028F00098B0FFF751FDFEF7F3FCFEF723FCFEF75F
:1029000065FC0120FEF726FD0020FEF7BFFC00203D
:10291000FEF7E8F90120FEF7B9FCFF20FEF7C8FC3E
:102920000020FEF7DFF900214FF47F00FEF7A2FC44
:102930005848FEF7A5FCFEF7FFFBC08856A1FEF73E
:102940000DFAFEF7F9FBC0884FF6FF7505EA400067
:102950005CA1FEF703FAFDF7BFFEFEF771F963A075
:10296000FFF7DAFD6BA0FFF7D7FDFEF72BFEFEF7B2
:10297000FFFD012822D072A0FFF7CEFD78494FF469
:102980008060088041007648801E018081140180AB
:102990000021FF20FEF76EFCFEF7CEFBC08871A180
:1029A00005EA8000FEF7DAF9FEF7C6FBC08873A1DE
:1029B00000EB800080B2FEF7D1F9FEE7794C64E0CD
:1029C0006748801F016881F4006101604FF47A70EC
:1029D00020606068002858D116A8FEF78FFDBDF969
:1029E0005C30BDF95A20BDF958106FA0FFF794FD77
:1029F00014A8FEF7A0FDBDF95430BDF95220BDF971
:102A000050106EA0FFF788FD13A8FEF701FEBDF978
:102A10004C106FA0FFF780FDBDF95C000090BDF980
:102A20005A30BDF958206EA101A8FFF785FDFEF7C9
:102A300083FBC08801A9C0EBC00080B2FEF78EF90D
:102A4000BDF954000090BDF95230BDF950206AA183
:102A500001A8FFF771FDFEF76FFBC08801A905EA29
:102A6000C000FEF77BF9BDF94C2069A101A8FFF772
:102A700063FDFEF761FBC08801A900EBC00080B2D6
:102A8000FEF76CF94FF4FA70606020680028A0D15E
:102A900096E7000040000020202020202020202059
:102AA000202020546869732069732061204D50559F
:102AB000363035302064656D6F20202020202020A6
:102AC0000000000020202020202020202020202086
:102AD000202020202028426173652056657273698A
:102AE0006F6E292020202020202000000D0A20BB0E
:102AF000B6D3ADCAB9D3C3B1FCBBF0202053544DFB
:102B00003332204634323920BFAAB7A2B0E5A1A3A0
:102B10000D0A00000D0A20D5E2CAC7D2BBB8F6499B
:102B20003243CDE2C9E8284154323443303229B629
:102B3000C1D0B4B2E2CAD4C0FDB3CC200D0A0000AB
:102B40000D0AC3BBD3D0BCECB2E2B5BD4D50553677
:102B5000303530B4ABB8D0C6F7A3A10D0A000000E1
:102B60001A1C02404E6F204D5055363035302064CF
:102B7000657465637465642120000000506C6561B4
:102B8000736520636865636B207468652068617293
:102B9000647761726520636F6E6E656374696F6ED2
:102BA0002120000050000020BCD3CBD9B6C8A3BA66
:102BB0002538642538642538640000002020202052
:102BC000CDD3C2DDD2C725386425386425386400EA
:102BD00020202020CEC2B6C825640D0A00000000C7
:102BE000416363656C65726174696F6E3A25386420
:102BF00025386425386400004779726F2020202032
:102C0000202020203A2538642538642538640000C7
:102C100054656D7065727475726520203A2538644C
:102C200000000000000000000000000000000000A4
:102C30000000000000000000000000000000000094
:102C40000000000000000000000000000000000084
:102C500000000000000080018001800180018001EF
:102C6000800180018001800180018001800180015C
:102C70000000000080018001000000000000000052
:102C80000000000000000000CC00CC00CC00CC0014
:102C9000CC00CC000000000000000000000000009C
:102CA0000000000000000000000000000000000024
:102CB0000000000000000000000000000000000014
:102CC000600C600C600C30063006FE1FFE1F3006E4
:102CD00038071803FE1FFE1F180318038C018C0110
:102CE0008C01000000008000E003F80F9C0E8C1C9B
:102CF0008C188C009800F801E007800E801C8C185E
:102D00008C189C18B80CF00FE003800080000000C5
:102D1000000000000000000000000E181B0C110C49
:102D200011061106110311039B018E01C038C06CFE
:102D300060446044304430441844186C0C3800003F
:102D4000000000000000E001F00338071806180634
:102D50003003F001F000F8009C310E33061E061C13
:102D6000061C063FFC73F02100000000000000007C
:102D700000000000000000000C000C000C000C0023
:102D80000C000C000000000000000000000000002B
:102D90000000000000000000000000000000000033
:102DA000000000000000000200038001C000C0001D
:102DB0006000600030003000300030003000300033
:102DC0003000300060006000C000C00080010003DF
:102DD00000020000000020006000C00080018001AF
:102DE00000030003000600060006000600060006B9
:102DF000000600060003000380018001C00060009F
:102E000020000000000000000000000000000000A2
:102E1000C000C000D806F807E00130033807000002
:102E200000000000000000000000000000000000A2
:102E30000000000000000000000000000000000092
:102E400080018001800180018001FC3FFC3F800106
:102E5000800180018001800100000000000000006E
:102E60000000000000000000000000000000000062
:102E70000000000000000000000000000000000052
:102E800000000000000080018001000100018000BE
:102E90000000000000000000000000000000000032
:102EA000000000000000000000000000E007E00754
:102EB0000000000000000000000000000000000012
:102EC0000000000000000000000000000000000002
:102ED00000000000000000000000000000000000F2
:102EE000000000000000C000C00000000000000062
:102EF000000000000000000C000C000600060006A8
:102F00000003000300038003800180018001C000F2
:102F1000C000C00060006000000000000000000071
:102F2000000000000000E003F007380E180C0C1839
:102F30000C180C180C180C180C180C180C180C1871
:102F4000180C380EF007E00300000000000000003D
:102F500000000000000000018001C001F0019801A4
:102F60008801800180018001800180018001800151
:102F7000800180018001800100000000000000004D
:102F8000000000000000E003F80F180C0C180C18EB
:102F900000180018000C000600038001C00060004B
:102FA00030001800FC1FFC1F0000000000000000A3
:102FB000000000000000E001F807180E0C0C0C0CDB
:102FC000000C0006C003C007000C001800180C1805
:102FD0000C18180CF807E0030000000000000000C7
:102FE000000000000000000C000E000F000F800D1C
:102FF000C00C600C600C300C180C0C0CFC3FFC3F3F
:10300000000C000C000C000C000000000000000090
:10301000000000000000F80FF80F180018000C0066
:10302000EC03FC071C0E001C0018001800180C18FC
:103030001C0C180EF807E003000000000000000060
:10304000000000000000C007F00F381C181818001E
:103050000C00CC03EC0F3C0E1C1C0C180C180C18AC
:10306000181C380EF007E00300000000000000000C
:10307000000000000000FC1FFC1F000C0006000602
:10308000000380038001C001C000E0006000600018
:103090007000300030003000000000000000000030
:1030A000000000000000E003F007380E180C180CB8
:1030B000180C3806F007F007180C0C180C180C1830
:1030C0000C18380CF80FE0030000000000000000AE
:1030D000000000000000E003F007380E1C0C0C1884
:1030E0000C180C181C1C381EF81BE0190018000CDA
:1030F000000C1C0EF807F0010000000000000000AA
:1031000000000000000000000000000000000000BF
:1031100080018001000000000000000000000000AD
:10312000000000008001800100000000000000009D
:10313000000000000000000000000000000000008F
:10314000800180010000000000000000000000007D
:1031500000000000800180010001000180000000EB
:10316000000000000000000000000000000000005F
:10317000000000000010001C800FE003F8001800A1
:10318000F800E003800F001C0010000000000000A9
:10319000000000000000000000000000000000002F
:1031A00000000000F81F000000000000F81F0000F1
:1031B000000000000000000000000000000000000F
:1031C00000000000000000000000000000000000FF
:1031D0000000000008003800F001C007001F0018C0
:1031E000001FC007F00138000800000000000000C8
:1031F000000000000000E003F80F180C0C180C1879
:103200000018000C000600038001C000C000C000D0
:1032100000000000C000C00000000000000000002E
:103220000000000000000000E00718180420C22978
:10323000224A114409440944094409221113E20CA9
:10324000024004201818E007000000000000000001
:1032500000000000000080038003C006C006C00616
:10326000600C600C301830183018F83FF83F1C70B4
:103270000C600C6006C006C00000000000000000EA
:10328000000000000000FC03FC0F0C0C0C180C18D4
:103290000C180C0CFC07FC0F0C180C300C300C300C
:1032A0000C300C18FC1FFC070000000000000000A0
:1032B000000000000000C007F01F38381C300C7000
:1032C000066006000600060006000600060006600E
:1032D0000C701C30F01FE007000000000000000030
:1032E000000000000000FE03FE0F060E0618061880
:1032F0000630063006300630063006300630061836
:103300000618060EFE0FFE0300000000000000007D
:10331000000000000000FC3FFC3F0C000C000C0013
:103320000C000C00FC1FFC1F0C000C000C000C001F
:103330000C000C00FC3FFC3F0000000000000000FF
:10334000000000000000F83FF83F180018001800C7
:1033500018001800F81FF81F1800180018001800AF
:1033600018001800180018000000000000000000FD
:10337000000000000000E00FF83F3C780E6006E01F
:1033800007C00300030003FE03FE03C007C006C01E
:103390000EC03CF0F83FE00F00000000000000000D
:1033A0000000000000000C300C300C300C300C30F1
:1033B0000C300C30FC3FFC3F0C300C300C300C302F
:1033C0000C300C300C300C3000000000000000000D
:1033D0000000000000008001800180018001800168
:1033E00080018001800180018001800180018001D5
:1033F00080018001800180010000000000000000C9
:10340000000000000000000600060006000600069E
:103410000006000600060006000600060006180664
:1034200018063807F003E00100000000000000006B
:1034300000000000000006300618060C0606060311
:103440008601C60066007600DE008E0106030606D1
:10345000060C0618063006600000000000000000A0
:1034600000000000000018001800180018001800E4
:10347000180018001800180018001800180018008C
:1034800018001800F81FF81F0000000000000000DE
:103490000000000000000EE01EF01EF01EF036D806
:1034A00036D836D836D866CC66CC66CCC6C6C6C644
:1034B000C6C6C6C686C386C3000000000000000062
:1034C0000000000000000C301C303C303C306C3000
:1034D0006C30CC30CC308C310C330C330C360C3699
:1034E0000C3C0C3C0C380C300000000000000000CC
:1034F000000000000000E007F81F1C380E70066096
:1035000003C003C003C003C003C003C003C0066000
:103510000E701C38F81FE0070000000000000000DB
:10352000000000000000FC0FFC1F0C380C300C30B9
:103530000C300C300C18FC1FFC070C000C000C00AD
:103540000C000C000C000C0000000000000000004B
:10355000000000000000E007F81F1C380E70066035
:1035600003E003C003C003C003C003C007E0066359
:103570000E3F1C3CF83FE0F700C0000000000000D8
:10358000000000000000FE0FFE1F06380630063067
:1035900006300638FE1FFE0706030606060C061850
:1035A000061806300630066000000000000000002B
:1035B000000000000000E003F80F1C0C0C180C18B1
:1035C0000C001C00F803E00F001E00380630063027
:1035D0000E301C1CF80FE007000000000000000087
:1035E000000000000000FE7FFE7F8001800180015E
:1035F00080018001800180018001800180018001C3
:1036000080018001800180010000000000000000B6
:103610000000000000000C300C300C300C300C307E
:103620000C300C300C300C300C300C300C300C30BA
:103630000C301818F81FE007000000000000000020
:1036400000000000000003600630063006300C1851
:103650000C180C18180C180C380E300630067007B1
:1036600060036003C001C001000000000000000012
:103670000000000000000360C361C361C3616633E2
:10368000663366336633663366336C1B6C1B6C1BA8
:103690002C1A3C1E380E380E0000000000000000FE
:1036A0000000000000000FE00C7018303018700CA3
:1036B000600EC00780038003C003E006700C301C5E
:1036C00018180C300E6007E0000000000000000039
:1036D00000000000000003C006600C301C383818E1
:1036E000300C6006E007C00380018001800180018A
:1036F00080018001800180010000000000000000C6
:10370000000000000000FC7FFC7F0060003000181B
:10371000000C000600038001C000600030001800AB
:103720000C000600FE7FFE7F00000000000000008D
:10373000000000000000E003E003600060006000A3
:103740006000600060006000600060006000600079
:103750006000600060006000600060006000E003E6
:10376000E0030000000030003000600060006000F6
:10377000C000C000C000C0018001800180010003C2
:103780000003000300060006000000000000000027
:10379000000000000000E003E0030003000300035A
:1037A0000003000300030003000300030003000301
:1037B0000003000300030003000300030003E00311
:1037C000E003000000000000C001C00160036003CE
:1037D000600330063006180C180C000000000000D2
:1037E00000000000000000000000000000000000D9
:1037F00000000000000000000000000000000000C9
:1038000000000000000000000000000000000000B8
:10381000000000000000FFFFFFFF000000000000AC
:103820000000000000000C000C000C000C000C005C
:103830000C0000000000000000000000000000007C
:103840000000000000000000000000000000000078
:103850000000000000000000000000000000000068
:10386000F003F8071C0C0C0C000FF00FF80C0C0CFC
:103870000C0C1C0FF80FF0180000000000000000F6
:1038800000000000000018001800180018001800C0
:10389000D803F80F380C1818181818181818181812
:1038A0001818380CF80FD8030000000000000000C2
:1038B0000000000000000000000000000000000008
:1038C000C003F007300E180C18001800180018007C
:1038D000180C300EF007C0030000000000000000CC
:1038E0000000000000000018001800180018001860
:1038F000C01BF01F301C18181818181818181818A2
:103900001818301CF01FC01B000000000000000051
:1039100000000000000000000000000000000000A7
:10392000C003F00F300C1818F81FF81F180018000B
:103930003818301CF00FC007000000000000000025
:10394000000000000000800FC00FC000C000C000D9
:10395000F007F007C000C000C000C000C000C000F9
:10396000C000C000C000C000000000000000000057
:103970000000000000000000000000000000000047
:10398000E00DF80F180E0C0C0C0C0C0C0C0C0C0CA5
:103990000C0C180EF80FE00D000C0C0C1C06F807B0
:1039A000F0010000000018001800180018001800AE
:1039B000D807F80F381C18181818181818181818DD
:1039C0001818181818181818000000000000000037
:1039D000000000000000C000C00000000000000067
:1039E000C000C000C000C000C000C000C000C000D7
:1039F000C000C000C000C0000000000000000000C7
:103A0000000000000000C000C00000000000000036
:103A1000C000C000C000C000C000C000C000C000A6
:103A2000C000C000C000C000C000C000C000F8005E
:103A30007800000000000C000C000C000C000C00D2
:103A40000C0C0C060C038C01CC006C00FC009C01DF
:103A50008C030C030C060C0C00000000000000009E
:103A6000000000000000C000C000C000C000C00096
:103A7000C000C000C000C000C000C000C000C00046
:103A8000C000C000C000C000000000000000000036
:103A90000000000000000000000000000000000026
:103AA0007C3CFF7EC7E383C183C183C183C183C1E3
:103AB00083C183C183C183C10000000000000000F6
:103AC00000000000000000000000000000000000F6
:103AD0009807F80F381C18181818181818181818FC
:103AE0001818181818181818000000000000000016
:103AF00000000000000000000000000000000000C6
:103B0000C003F00F300C18181818181818181818C7
:103B10001818300CF00FC003000000000000000077
:103B20000000000000000000000000000000000095
:103B3000D803F80F380C181818181818181818186F
:103B40001818380CF80FD8031800180018001800BF
:103B5000180000000000000000000000000000004D
:103B6000C01BF01F301C181818181818181818182F
:103B70001818301CF01FC01B00180018001800187F
:103B8000001800000000000000000000000000001D
:103B9000B007F0037000300030003000300030001B
:103BA0003000300030003000000000000000000055
:103BB0000000000000000000000000000000000005
:103BC000E003F003380E180C3800F003C007000CB7
:103BD000180C380EF007E0030000000000000000A1
:103BE00000000000000000008000C000C000C00015
:103BF000F007F007C000C000C000C000C000C00057
:103C0000C000C000C00780070000000000000000E6
:103C100000000000000000000000000000000000A4
:103C20001818181818181818181818181818181814
:103C30001818381CF01FE0190000000000000000F8
:103C40000000000000000000000000000000000074
:103C50000C18180C180C180C3006300630066003CF
:103C600060036003C001C00100000000000000000C
:103C70000000000000000000000000000000000044
:103C8000C141C141C36163636363636336363636E2
:103C900036361C1C1C1C1C1C000000000000000010
:103CA0000000000000000000000000000000000014
:103CB0001C38381C300C600660036003600360032E
:103CC0006006300C381C1C380000000000000000AA
:103CD00000000000000000000000000000000000E4
:103CE0001830301830187018600C600CE00CC006EA
:103CF000C00680038003800380018001C001F000C2
:103D00007000000000000000000000000000000043
:103D1000FC1FFC1F000C000600038001C0006000B7
:103D200030001800FC1FFC1F000000000000000015
:103D300000000000000000038001C000C000C000BF
:103D4000C000C000C00060006000300060004000A3
:103D5000C000C000C000C000C000C000800100035F
:103D600000000000000080018001800180018001CE
:103D7000800180018001800180018001800180013B
:103D8000800180018001800180018001800180012B
:103D90008001000000006000C000C00180018001BF
:103DA0008001800180010003000300060003000180
:103DB000800180018001800180018001C0006000DD
:103DC00000000000000000000000000000000000F3
:103DD00000000000F010F81F080F000000000000B5
:103DE00000000000000000000000000000000000D3
:103DF000000000003C3C2D4932432D4552524F52A9
:103E00002D3E3E204D50553630353020646563746C
:103E10006563746564206572726F72210D0ABCEC73
:103E2000B2E2B2BBB5BD4D505536303530C4A3BF3C
:103E3000E9A3ACC7EBBCECB2E9C4A3BFE9D3EBBFC9
:103E4000AAB7A2B0E5B5C4BDD3CFDF0A0000000019
:103E5000703E0008000000205000000060250008AF
:103E6000C03E00085000002010040000702500082B
:103E70000095BA0A000000000000000001020304DF
:103E80000607080900000000010203040102030400
:103E90000607080900000000FFFFFF00000000D037
:103EA0000000000000000000000000000000000012
:103EB000242C00081000180037000000000000004B
:04000005080001AD41
:00000001FF
