:020000040800F2
:1000000098530020C1010008CF1F0008691700089D
:10001000CD1F0008210E0008C529000800000000BF
:100020000000000000000000000000009927000808
:10003000A9110008000000004D20000871280008E8
:10004000DB010008DB010008DB010008DB01000820
:10005000DB010008DB010008DB010008DB01000810
:10006000DB010008DB010008DB010008DB01000800
:10007000230E0008DB010008DB010008DB0100089B
:10008000DB010008DB010008DB010008DB010008E0
:10009000DB010008DB010008DB010008DB010008D0
:1000A000DB010008DB010008DB010008DB010008C0
:1000B000DB010008DB010008DB010008DB010008B0
:1000C000DB010008DB010008DB010008DB010008A0
:1000D000DB010008DB010008DB010008DB01000890
:1000E000DB010008DB010008DB010008DB01000880
:1000F000DB010008DB010008DB010008DB01000870
:10010000DB0100080D220008DB010008DB0100080C
:10011000DB010008DB010008DB010008DB0100084F
:10012000DB010008DB010008DB0100081D0F0008EF
:10013000DB010008DB010008DB010008DB0100082F
:10014000DB010008DB010008DB010008DB0100081F
:10015000DB010008DB010008DB010008DB0100080F
:10016000DB010008DB010008DB010008DB010008FF
:10017000DB010008DB010008DB010008DB010008EF
:10018000DB010008DB010008DB010008DB010008DF
:10019000DB010008DB010008DB010008DB010008CF
:1001A000DB010008DB010008DB010008DFF80CD0F0
:1001B00000F032FC00480047B53400089853002096
:1001C0000648804706480047FEE7FEE7FEE7FEE7F1
:1001D000FEE7FEE7FEE7FEE7FEE7FEE7752800081C
:1001E000AD0100082DE9F05F0546002092469B46D0
:1001F00088460646814640241BE02846414647463D
:10020000224600F09EFA53465A46C01A914110D336
:1002100011461846224600F085FA2D1A67EB0108B0
:100220004F4622460120002100F07CFA17EB00091E
:100230004E41201EA4F10104DFDC484631462A4627
:100240004346BDE8F09F0000004870475067000833
:1002500010B50446FFF7F8FF0068005D00F00100EC
:1002600010BD40EA01039B0703D009E008C9121F33
:1002700008C0042AFAD203E011F8013B00F8013B60
:10028000521EF9D27047D2B201E000F8012B491E8C
:10029000FBD270470022F6E710B513460A46044623
:1002A0001946FFF7F0FF204610BD421C10F8011B55
:1002B0000029FBD1801A7047CBB203E00178994244
:1002C00003D0401C521EF9D20020704730B50446BE
:1002D0000020034600E05B1C934203D2E05CCD5C4F
:1002E000401BF8D030BD2DE9F04791460F468046BF
:1002F0000446002614F8015B2DB1FFF7A5FF006846
:10030000405DC007F6D12B2D02D02D2D18D0641ED4
:100310004A463946204600F036FA27B13968A142EC
:1003200001D1C7F8008071054FF002040BD540429F
:10033000002803DD02F09EFB0460A007BDE8F08703
:1003400046F48066E4E70028F8DA02F093FB0460E4
:100350006FF00040F2E72DE9FE4F804681EA03008E
:10036000C00F0C46009021F0004123F00045B8EB8F
:100370000200A94105D24046214690461C460B4644
:10038000024623F00040104347D0270DC7F30A0070
:10039000C3F30A510290401A019040286BDAC3F36C
:1003A000130040F4801B0098924620B10023D2EB4A
:1003B000030A63EB0B0B01985946C0F1400250460B
:1003C00000F0B0F906460D4650465946019A00F035
:1003D000C8F910EB08006141002487EA115284EA51
:1003E000E7731A4340D0009A62B3019A012A4FEA98
:1003F000075215DC001B61EB02014FF0004202EADC
:100400000752CDE90042001C41F5801132462B46CF
:1004100000F09CFA03B0BDE8F08F40462146F9E7B2
:10042000001B61EB0201001C41F5801300185B41C9
:100430002018A2F5001747EB030140EAD570B61962
:100440006D4111E06D084FEA360645EAC0754FEA86
:100450000752001B61EB0201001C41F580114908A5
:100460004FEA30000019514132462B4603B0BDE837
:10047000F04F00F05CBA0098012240000023D0EB5E
:10048000020263EBE073009821464FEAE074B8EB98
:10049000000061EB0401E9E783F000435BE781F0D2
:1004A000004158E72DE9FE4F81EA030404F00044BF
:1004B00021F0004100944FF0000B23F0004350EA7C
:1004C00001045ED052EA03045BD0C3F30A54C1F3C3
:1004D0000A552C44A4F2F3340194A0FB0254C1F356
:1004E000130141F48011C3F3130343F4801301FBA0
:1004F000024400FB034E840A970A44EA815447EA07
:100500008357A4FB076802958D0A05FB07854FEA10
:10051000932C04FB0C542705029D4FEA065847EA2A
:100520001637B5EB08056EEB070C870E920E47EAFF
:10053000811742EA8312A7FB0201B6EB0B0164EBC1
:1005400000042B0D43EA0C335E1844EB1C50DA46D2
:100550005146E7FB0201C5F313044FEA0B3343EAAC
:1005600014534FEA0432019C43EA0603A4F10C043D
:100570000294009CCDE900B400F0E8F903B0BDE8B6
:10058000F08F00200146F9E72DE9F04D81EA0304E0
:1005900004F0004B21F0004514464FF0000A23F010
:1005A000004150EA050220D054EA01021DD0C5F3F3
:1005B0000A570246C5F31303C1F31300C1F30A56E9
:1005C00040F4801543F48013A7EB0608101BD646B1
:1005D00008F2FD3873EB050002D308F1010801E0D1
:1005E00092185B41B8F1000F03DA00200146BDE824
:1005F000F08D00204FF48011064684460EE0171B54
:1006000073EB050705D3121B63EB050306434CEAA6
:10061000010C49084FEA300092185B4150EA01078B
:10062000EDD152EA030012D082EA040083EA050108
:10063000084305D0101BAB4106D20122002306E07F
:1006400000224FF0004302E06FF0010253101AEB5A
:1006500006004CEB085110EB0A0041EB0B01BDE822
:10066000F04D00F064B90EB5C10F80EAE0700844A7
:10067000CA07002140F233438DE80E000A460B46BC
:1006800000F064F903B000BD70B5C1F30A5201F087
:1006900000450024C1F3130140F2FF3341F48011FF
:1006A0009A4201DA002070BD40F233439A42A2F22E
:1006B000334203DC524200F044F800E090402C4307
:1006C000F1D0404270BD000030B5041E71F100044D
:1006D00004DB4FF00044404264EB0101141E73F14F
:1006E000000405DB1C464FF00043524263EB040359
:1006F000994208BF904230BD30B50B4601460020FC
:100700002022012409E021FA02F59D4205D303FAD3
:1007100002F5491B04FA02F52844151EA2F1010254
:10072000F1DC30BD202A04DB203A00FA02F100207F
:1007300070479140C2F1200320FA03F3194390401F
:100740007047202A04DB203A21FA02F0002170478A
:1007500021FA02F3D040C2F1200291400843194629
:100760007047202A06DBCB17203A41FA02F043EA11
:10077000E07306E041FA02F3D040C2F1200291405A
:100780000843194670472DE9F05F8246007800273C
:1007900015468B460AF10104B946302801D09DB1B7
:1007A00013E014F8010B0127782803D0582801D052
:1007B00045B10AE00DB1102D07D10027102514F81E
:1007C000010B02E0082500E00A250026B0460EE0F5
:1007D00005FB080005FB06F1012701EB10461FFA97
:1007E00080F8B6F5803F00D3B94614F8010B2946CE
:1007F00000F024F90028EBDABBF1000F05D00FB1AF
:10080000641E00E05446CBF80040B9F1000F06D05A
:1008100002F030F902210160C81EBDE8F09F48EAED
:100820000640FAE70FB4002300B589B00CA9009187
:100830000B996FF00042CB601E4B06931E4B079343
:100840000423CDE901321D4A089202466B4600207E
:1008500000F082F909B05DF814FB70B586B0064669
:100860004FF0FF300091CDE90101002015460C4604
:1008700004903246694604A8FFF7D4FF0346049863
:10088000211825B108B10A4600E022462A60002856
:100890000DD0002B02DD0098884208D0081B009480
:1008A000CDE901043246694604A8FFF7BBFF06B054
:1008B00070BD0000910D0008AF0D00085102000846
:1008C0000029A8BF7047401C490008BF20F0010064
:1008D000704710B4B0FA80FC00FA0CF050EA010442
:1008E00004BF10BC704749B1CCF1200421FA04F4D4
:1008F00011FA0CF118BF012121430843A3EB0C01AD
:10090000CB1D4FEA00614FEA102042BF002010BC0F
:10091000704700EBC35010440029A4BF10BC7047BF
:10092000401C490008BF20F0010010BC704710B502
:10093000141E73F1000408DA401C41F10001921802
:100940005B411A4301D120F0010010BD2DE9F04DAB
:1009500092469B4611B1B1FA81F202E0B0FA80F200
:1009600020329046FFF7DEFE04460F4640EA0A00BA
:1009700041EA0B0153465A46084313D0114653EA45
:10098000010019D0C8F140025046FFF7DAFE0546D3
:100990000E46504659464246FFF7C4FE084305D06E
:1009A000012004E020463946BDE8F08D00200543D3
:1009B00046EAE0762C4337430A986305E40AA0EB45
:1009C00008000022FD0A44EA47540A3002D50020FC
:1009D0000146E9E7010510196941DDE908450019FB
:1009E0006941BDE8F04DA2E7C1F30A52C1F313011A
:1009F00040F2FF3341F480119A4202DA00200146AE
:100A0000704740F233439A42A2F2334202DC524230
:100A1000FFF797BEFFF786BE064C074D06E0E0687D
:100A200040F0010394E8070098471034AC42F6D335
:100A3000FFF7C0FB44680008646800083A2800D249
:100A4000303820F02002412A01D3A2F13700884239
:100A500001D34FF0FF3070472DE9FF4F087881B088
:100A60009946FF2805D0491C2D2804D000240023D6
:100A700008E000230BE00124F9E703EB830300EB1C
:100A80004303491C0878FF28F7D104B15B420020DA
:100A90000090147801462D2C01D02B2C04D1521C2F
:100AA0002D2C12D00024009400251678FF2E0ED095
:100AB0000A24A0FB04C801FB0481002700FB0711E6
:100AC000521C16EB0C006941EFE70124EBE7994457
:100AD00050EA01020ED00024AA4D2646DFF8A88273
:100AE00000F076F982468B46B9F1000009DAC9F1C7
:100AF00000071BE001980021C0E9001105B0BDE826
:100B0000F08F074612E0F80707D022462B46304602
:100B10004146FFF7C7FC0646884622462B4610464C
:100B20001946FFF7BFFC04460D467F10002FEAD19F
:100B3000B9F1000F324643465046594602DAFFF7F4
:100B400023FD01E0FFF7AEFC009A0AB181F00041FD
:100B5000019AC2E90001D1E72DE9FF4F1F468DB090
:100B6000D7E901464FF0FF382E2045464FF00009E7
:100B70000B90B9696D1C0E988847396A8246884780
:100B80000028F6D1BAF1FF3F0AD024F4D064002E39
:100B900011DDBAF12B0F08D0BAF12D0F0BD102E005
:100BA000404611B0ABE744F48064B9696D1C0E98FF
:100BB00088478246761E6946600501D52D2000E0F3
:100BC0002B208DF8000001F1010B0DF1200809E048
:100BD000B9696D1C0E98884782460F9844F40074DA
:100BE000761E0560002E02DDBAF1300FF0D00B99B1
:100BF0008A453ED144F0800406E00F99681CA9F1B3
:100C0000010944F400740860B9696D1C761E0E98E1
:100C1000884782463028F0D02BE00B998A4505D1D1
:100C2000200603D444F08004761E18E0504601F0FC
:100C3000E7FF08B30DF11301761E44F400748B45F1
:100C400008D2AAF130000BF8010B200607D5A9F154
:100C5000010003E0200602D409F101008146A0054D
:100C600002D50F99681C0860B9696D1C0E988847F9
:100C70008246002ED1DC53E0002E51DDBAF1650F23
:100C800002D0BAF1450F4BD1A00549D5B9696D1C09
:100C900024F44074761E0E9888478246002E0CDDA0
:100CA0002B2804D0BAF12D0F07D144F48074B96910
:100CB0006D1C0E9888478246761EE00501D52D21D1
:100CC00000E02B2108F8011BCDF82C8021E00DF16C
:100CD0002901761E44F4007488450CD2AAF1300034
:100CE00010F0FF0088F8000002D10B99884509D95F
:100CF00008F1010806E0E00501D5244801E042F2D0
:100D00000F708146B9696D1C0E98884782460F980E
:100D10000560002E04DD504601F072FF0028D6D198
:100D2000F9690E988847FF208BF8000088F80000CA
:100D30000020069007904B466A4608A906A8FFF7D0
:100D40008BFEA00502D46FF001002AE714F0240FF7
:100D50000AD0E00714D1DDE906123868031D3B60B4
:100D60000068C0E900120BE0DDE9060100F03CF884
:100D70000146E00704D13868021D3A60006801604E
:100D800028460EE7000024400000F03FF1D8FFFFA6
:100D9000426842B1016811F8013B23B1521EC0E91B
:100DA0000012184670470121C160881E70474268D2
:100DB0005AB1C368016843B983688B4205D0491EA4
:100DC000521CC0E90012002070474FF0FF307047FE
:100DD0000EB540F2334202920022CDE900221346C2
:100DE000FFF7B4FD03B000BD01F0004330B421F0C3
:100DF000004150EA010206D00A0DA2F56072C1F36B
:100E00001301002A02DC30BC00207047440F44EA82
:100E1000C104C100E01830BC00EBC250FFF750BD68
:100E2000FEE700F02BBC10B50121CC05204601F0F7
:100E30001DF92046BDE81040002101F017B900005F
:100E400001460020024A52680A4200D00120704741
:100E500000B0024030B500242A4B19682A4A1140DC
:100E600019601968026811431960596B21F0070174
:100E70005963596B4268114359634168002928D06E
:100E800001292DD0022930D0032933D0C1680A01AD
:100E900001690902446924038568214315430D4310
:100EA000996B0D439D638169D963196C6FF30D01D3
:100EB0001964196CC26911431964818C09045A6C54
:100EC00002F040425A645A6C006A02430A435A6470
:100ED00030BDC1680A02018A0904047D2406DBE7EB
:100EE000C1680A02018A0904D6E7C1684A0101699A
:100EF000C902D1E7C1684A01016989024469E40372
:100F0000CAE7000000B00240FCE0FCFF02480168B4
:100F100041F001010160704700B0024001F0DCBB0C
:100F2000074A904201D2074801E005481038064AB6
:100F30008B0001EA020101D5C160704781607047F2
:100F400010640240006002407D0F7D0F074A90420E
:100F500001D2074801E005481038064A8B0001EA33
:100F6000020101D5C1607047816070471064024082
:100F7000006002407D0F7D0F002904D0016841F020
:100F8000010101607047016821F0010101607047B3
:100F90002DE9F043016821F00101016000210160A9
:100FA00041608160C1600161212141613E493E4A49
:100FB00010394FF03D08904203D1C1F80880BDE8D8
:100FC000F083394A4FF474651832904201D18D6034
:100FD000F5E7354A4FF474163032904201D18E60F5
:100FE000EDE7314A4FF074674832904201D18F608B
:100FF000E5E72D4B2D4A6033984201D1CA60DEE708
:10100000294C2B4B7834A04201D1CB60D7E7DFF8D5
:1010100098C0284C0CF1900C604501D1CC60CEE713
:10102000DFF884904FF03D5C09F1A809484502D1F2
:10103000C1F80CC0C3E72049DFF87C900839484567
:1010400002D1C1F80080BAE7DFF86C8008F1180817
:10105000404501D10D60B2E7174D3035A84201D1AE
:101060000E60ACE7144D4835A84201D10F60A6E7E9
:10107000114D11496035091FA84201D10A609EE750
:101080000D4A7832904201D10B6098E70A4A9032BB
:10109000904201D10C6092E7074AA83290428ED16B
:1010A000C1F800C08BE70000106002403D00002046
:1010B000400F002000003D20106402400146002047
:1010C0000968C90700D001207047000030B500242E
:1010D0000F4A904201D20F4A01E00D4A103A0E4BDE
:1010E000194205D01E2303EAD12503682B4002E0F4
:1010F000406900F08003880001D5506800E0106866
:10110000064A1040084201D003B10124204630BDF8
:1011100010640240006002403C0F3C0F7D0F7D0FC9
:101120000B0609D522B1436943F08003436103E014
:10113000436923F080034361802905D001F01E013B
:101140001AB102680A430260704702688A4302606B
:101150007047000030B50368124A1340CC680A6833
:101160002243D1E905452C432243CC6922430C6A32
:1011700022434C6A22438C6A22434C6B22438C6B81
:1011800022431A430260426922F00703D1E90B248B
:1011900022431A4342610A6942604A688260896850
:1011A000C16030BD3F801CF07047000070B586B054
:1011B0000121084600F04CFF0121102000F080FFC3
:1011C0001E4E07220A21304600F0DCF907220921D1
:1011D000304600F0D7F900248DF8164001208DF834
:1011E000170002258DF81450410204918DF8155016
:1011F00004A9304600F088F98DF814506802049074
:1012000004A9304600F080F94FF4E1300090ADF8C9
:101210000440ADF80640ADF80840ADF80C400C2095
:10122000ADF80A00064C6946204601F069FB012131
:10123000204601F047FB06B070BD000000000240F0
:101240000010014001B502E00098401E0090009897
:101250000028F9D108BD00224FF0204310280AD001
:10126000B0F5807F09D0B0F5805F09D0D3F8580180
:10127000814309D107E0586EFAE7D3F88400F7E715
:10128000D3F8A400F4E7012210467047D0E9001219
:1012900011438268C068521E520142EA4020014355
:1012A0000148016070470000500100A070B504685B
:1012B000A100A1F1C041D1F84011CE0BF603D0E955
:1012C00001121143D0E903231A4311434269C36950
:1012D00011438269056A11431943426A2943114344
:1012E00031434FF02046002C3CD0D6F840416FF3FC
:1012F0000E042B4322431343C6F840310268920088
:10130000A2F1C042C2F84011016871B38900A1F195
:10131000C041D1F8481101F07043816A0A684C68F5
:10132000521E641E42EA04148A68521E44EA0224D1
:101330000A8A521E44EA02421A43D6F8483103F0A0
:101340007043CC68898A641E2403491E44EA015113
:101350001943C6F8481100688000A0F1C040C0F8E9
:10136000482170BDC6F84011CEE7FFE7D6F8481116
:1013700001F07041806A02684368521E5B1E42EAB7
:1013800003138268521E43EA0223C268521E43EAD4
:101390000233028A521E43EA0243828A007E521EB0
:1013A00043EA0252401E42EA00600843C6F8480180
:1013B00070BD000002490A6842EA400008607047B8
:1013C000540100A02DE9F0470F46002A70D00C2AE6
:1013D0006ED8066844688568C168D0F81090D0F867
:1013E00014A0BBB301EB0208B8F1180F19D3A8F190
:1013F0001808012C16D0032C14D0052C12D0072C61
:1014000010D0082C0ED00A2C0CD0042C11D0062C95
:101410000FD0092C0DD00B2C0BD0022C10D00C2C83
:101420001CD066E01F2D01D26D1C62E00125641CFA
:101430005FE01E2D01D26D1C5BE00125641C58E0AD
:101440001D2D08D01C2D03D1F0B200F099F910B178
:101450006D1C4EE00AE0012503244AE01F2D01D255
:101460006D1C46E001250124761C42E0914202D326
:10147000A1EB02083DE0A1EB020808F11808022CDC
:1014800017D0042C15D0062C13D0082C11D0092C01
:101490000FD00B2C0DD0052C12D0072C10D00A2CFD
:1014A0000ED00C2C0CD0032C11D0012C1AD020E023
:1014B00028E0012D01D96D1E1BE01F25641E18E0D8
:1014C000012D01D96D1E14E01E25641E11E0012DB1
:1014D00003D1F0B200F054F908B16D1E09E01C25EB
:1014E000022406E0012D01D96D1E02E01F250C2407
:1014F000761E3E607C60BD60C7F80C80C7F8109017
:10150000C7F814A0BDE8F0872DE9F04100220127BB
:101510004FF0030C07FA02F50B682B40AB422CD1BD
:10152000066853000CFA03F4A64306600E79D0F85F
:1015300000809E4046EA080606600E79012E01D022
:10154000022E12D18668A64386604E79D0F80880B4
:101550009E4046EA080686604668AE434660456897
:101560008E799640B6B235434560C568A543C560DF
:10157000CC799C40C3681C43C460521C102AC9D358
:10158000BDE8F08110B54B07DB0E9A40C90800EBAF
:101590008100016A0F249C40A1430162016A11434A
:1015A000016210BD418370470183704710B500F0A0
:1015B0008FF8BDE8104000F001B8000010B590B001
:1015C0000121480500F044FD1F4C2046FFF7E0FCD8
:1015D0002046FFF773FD0028FAD14FF0006001901C
:1015E0001A4802901A480390002004904FF40071AA
:1015F00005910690490007910890099089100A9179
:1016000009020B910C9003210D910E900F9001A9EE
:101610002046FFF79FFD00F01DF80122182120460B
:10162000FFF77EFD01212046FFF7A6FC2046FFF7CD
:1016300045FD0128FAD1054801224021001F01F093
:101640004DF910B010BD0000286002400448004071
:101650009800002008B54FF4C06000F0EDFC0C20AD
:101660008DF8000001208DF8010000218DF8021096
:101670008DF80300684600F0ABFC08BD2DE9F04191
:101680000F4F104E39463046FFF720FD0E4D012416
:1016900030B16C7039463046BDE8F041FFF756BCBA
:1016A0000A4F30463946FFF711FD002806D02C704E
:1016B00039463046BDE8F041FFF748BCBDE8F0814F
:1016C000004400102860024028000020008800101C
:1016D00070B586B00121022000F0BAFC0121880417
:1016E00000F0E0FC1E4E07220B213046FFF74AFFB8
:1016F00007220A213046FFF745FF00248DF81640E7
:1017000001208DF8170002258DF8145081020491F4
:101710008DF8155004A93046FFF7F6FE8DF81450E9
:10172000A802049004A93046FFF7EEFE4FF41650CD
:101730000090ADF80440ADF80640ADF80840ADF8B3
:101740000C400C20ADF80A00064C6946204601F01A
:10175000D7F80121204601F0B5F806B070BD0000B1
:10176000000402400048004001A001F04DF9FEE7EE
:10177000686172646661756C742121210A00000041
:1017800000F5FA60810701D0002070474FF4C8715E
:10179000B0FBF1F201FB120131B16421B0FBF1F2B7
:1017A00001FB12000028F0D0012070472DE9F04124
:1017B0008AB08046174F3988CC0A01F01F05C1F363
:1017C0004516FFF730FB4FF44030009002200190A7
:1017D0000396029504944FEA08400012000E05900B
:1017E00078680690002007904FF4F07008904FF44E
:1017F000487009906846FFF72DFBFFF787FB022032
:10180000FFF71EFB0028FAD0388800F0B3FA0AB0C0
:10181000BDE8F0811800002010B4203AD3B2054A88
:10182000D2681468D2885A4304EB420210BC00F01C
:1018300025B80000180000202DE9F04180460D4633
:1018400000240D4E4FF4487708E021464046FFF74C
:10185000E3FFF0688088204484B26D1CBC4208D24B
:101860002A78002A05D0F0688188081980B2884259
:10187000EBD2BDE8F0810000180000202DE9F04314
:1018800000254FF4C8635843DFF87890D9F804C0B6
:10189000D9F80C7030E0002326E00C26B4FBF6F6F5
:1018A000F6004FF0800808FA06F832F8156048FA9A
:1018B00003F818EA060F01D10C2C08D94FF00108E3
:1018C00008FA03F816EA080F07D10C2C05D90CEB1F
:1018D0004106B9F80240345204E00CEB4106B9F875
:1018E00000403452491C5B1CBC889C42D5D8BB8844
:1018F000C3F5487319446D1CFB88AB42CBD8BDE8D7
:10190000F0830000180000202DE9FC5F012140F267
:10191000FF1000F09DFB4FF00408CDF8008002207E
:101920008DF805008DF8040000208DF806008DF874
:1019300007006946AA48FFF7E7FD0E220221A848E2
:10194000FFF720FE4FF00809CDF800906946A44843
:10195000FFF7DAFD0E220321A148FFF713FE4FF433
:10196000807ACDF800A069469D48FFF7CDFD0E2294
:1019700008219B48FFF706FE012400946946994818
:10198000FFF7C2FD092200219648FFF7FBFD4FF447
:10199000006BCDF800B069469348FFF7B5FD0E2205
:1019A0000B219148FFF7EEFD2003009069468E4819
:1019B000FFF7AAFD0E220C218B48FFF7E3FD022062
:1019C000009069468748FFF79FFD0922012185485D
:1019D000FFF7D8FD4025009569468448FFF794FD40
:1019E0000E2206218148FFF7CDFD20200090694698
:1019F0007F48FFF789FD0E2205217D48FFF7C2FDD4
:101A0000009569467A48FFF77FFD0E220621784847
:101A1000FFF7B8FD6003009069467148FFF774FD59
:101A20000E220D216E48FFF7ADFDA6020096694615
:101A30006E48FFF769FD09220A216C48FFF7A2FDF5
:101A4000E003009069466648FFF75EFD0E220F2115
:101A50006348FFF797FD009469466648FFF754FD19
:101A60000E2200216348FFF78DFD8027009769460D
:101A70006148FFF749FD0E2207215F48FFF782FD0D
:101A8000CDF8008069465B48FFF73EFD0E2202213B
:101A90005848FFF777FD4FF01008CDF800806946F1
:101AA0005348FFF731FD0E2204215148FFF76AFD2C
:101AB0002003009069464D48FFF726FD0E220C21B9
:101AC0004A48FFF75FFD00954C4D69462846FFF7F1
:101AD0001BFD0E2206212846FFF754FDCDF800B06D
:101AE00069464248FFF710FD0E220B213F48FFF7E1
:101AF00049FDCDF8008069463E48FFF705FD0E22FE
:101B000004213C48FFF73EFDCDF800906946364879
:101B1000FFF7FAFC0E2203213348FFF733FDCDF81F
:101B200000A069462F48FFF7EFFC0E2208212D4840
:101B3000FFF728FD4FF40079CDF800906946294859
:101B4000FFF7E2FC0E2209212648FFF71BFD009754
:101B500069462648FFF7D8FC0E2207212348FFF7E5
:101B600011FD009669462348FFF7CEFC0E220A219C
:101B70002048FFF707FDCDF8009069461D48FFF7A4
:101B8000C3FC0E2209211B48FFF7FCFC00961C4EEB
:101B900069463046FFF7B8FC0E220A213046FFF7AF
:101BA000F1FCCDF8008002208DF805008DF804408E
:101BB00000208DF806008DF8074069462846FFF79B
:101BC000A3FC009769462846FFF79EFC1021284693
:101BD000FFF7EAFC80212846FFF7E6FCBDE8FC9F02
:101BE000001C0240000402400000024000180240B5
:101BF000001002400020024000080240000C024099
:101C0000001402400148C06870470000180000201E
:101C100010B590B00121880600F052FA0121C805E4
:101C200000F016FAFFF770FE00F0C2FC00240194E9
:101C30000294039404940D940E940F9404220721AB
:101C40004FF4C07000F0C8FA4FF4803000F0B4FADE
:101C5000012000F0BBFA3D2000F092FA0028FAD0F3
:101C6000059406942E2007901720089040F24E30DD
:101C7000099040F2F7100A9040F262300B9040F267
:101C80000D200C9001A800F0EDF810B010BD000080
:101C900030B591B02F20019040F24E3002901820C4
:101CA000039040F2F710049003240594FF2006905F
:101CB00000200790089009900A904FF480600B90E4
:101CC00005200C9040F243600E90C01E0F904FF420
:101CD000F07010904FF050400D90144D01A928461F
:101CE00000F022F9059412490D9161020B91072130
:101CF0000C910E4C01A98034204600F015F901200A
:101D000000F05EF90121284600F002F90121204689
:101D100000F0FEF8012000F053F9064800F012F838
:101D2000012000F08FF811B030BD00008468014040
:101D300000B80BD010000020014A1080518070477D
:101D4000180000200149C8607047000018000020FA
:101D50000649002804D00648486001208860704782
:101D60004FF0504048600020886070471800002005
:101D700000B80BD00149088070470000180000200F
:101D800010B509498968002908D00146074800F0C4
:101D9000BDF8BDE81040012000F012B9014603482B
:101DA000803800F0B3F8F4E718000020046901401F
:101DB0002DE9FC410121882000F04AF94FF48065AB
:101DC000009501218DF8041000208DF806008DF893
:101DD00007108DF80500114F69463846FFF794FB50
:101DE0006C00009469463846FFF78EFB660000964B
:101DF00069463846FFF788FB0094094F6946384624
:101E0000FFF782FB054918310D800C800E802146BA
:101E10003846FFF7C7FBBDE8FC810000001C02400C
:101E2000000C02400649002804D0086840F0010078
:101E300008607047086820F00100086070470000E3
:101E4000186801400649002804D0086840F4803032
:101E500008607047086820F4803008607047000010
:101E60001868014030B5264A136826490B401360B4
:101E7000038A1B04146845692C431C431460121D1B
:101E800013680B401360038B1B041468C5692C4353
:101E90001C431460121D13680B401360038C1B0459
:101EA0001468456A2C431C431460121D13680B40D0
:101EB0001360018D09041368C46A23430B43136044
:101EC000111D0A68104B1A400A60D0E900231A431A
:101ED000D0E9023423431A430B681A430A60416B6A
:101EE0000A02018E0B04064924310C6804F07F4479
:101EF0000C600C68806B134304431C430C6030BDC2
:101F00000868014000F800F08F88FE0F41617047BB
:101F1000002904D0016841F00101016070470168A7
:101F200021F001010160704770B58A88120443688E
:101F300003F4704343600B68134343608A891204BF
:101F4000836803F4704383608B6813438360026982
:101F500022F0070202610A690261CA6913020A8C4F
:101F6000120491F8244024068569002585618E6954
:101F700022431E4316438661426922F0FF024261FA
:101F80004A694261C26940F207739A43C261D1E96A
:101F90000A231A43C261826A85620A6B82620A8FCF
:101FA0001204C36A03F0E023C3624B6B1343C362A2
:101FB000026B6FF30A020263C96B016370BD00001C
:101FC000014908607047000024680140FEE770473F
:101FD00030B50F23C27801250178002A1FD0154A99
:101FE000126802F4E062C2F5E062C2F30722C2F1B5
:101FF0000404D3404278A24084781C401443220158
:1020000001F1E02181F80024007800F01F018D40EB
:102010004009800000F1E020C0F8005130BD01F01F
:102020001F0085404809800000F1E020C0F8805181
:1020300030BD00000CED00E0024908430249086091
:10204000704700000000FA050CED00E0704700004A
:10205000054A002903D011680143116070471168D7
:10206000814311607047000030380240054A002962
:1020700003D01168014311607047116881431160FA
:102080007047000010380240054A002903D011684B
:10209000014311607047116881431160704700006F
:1020A00038380240054A002903D011680143116005
:1020B000704711688143116070470000403802404A
:1020C000054A002903D01168014311607047116867
:1020D00081431160704700004438024070B5244BC2
:1020E000196801F00C01234C00291ED0224E04294E
:1020F0001DD008291DD00460196801F0F0010909FC
:102100001E4A545C0168E14041601C6804F4E054DC
:10211000A40A145D21FA04F484601B6803F460438C
:102120005B0BD25CD140C16070BD0460E4E7066027
:10213000E2E70F4A121F1168C1F38055116801F0E0
:102140003F0135B1B6FBF1F11468C4F38814614363
:1021500005E0B4FBF1F11468C4F38814614312681C
:10216000C2F30142521C5200B1FBF2F10160C3E71D
:10217000083802400024F40040787D01000000206F
:1021800002460020510901290BD002290DD009492E
:10219000096802F01F02012393400B4200D0012086
:1021A0007047044974390968F3E70249091F09684F
:1021B000EFE7000074380240034A116821F440310F
:1021C00001431160704700008C38024001490867E4
:1021D0007047000000004742800140EA0160024968
:1021E00040EA027008607047883802400149086080
:1021F00070470000382C014001460020024A126856
:102200000A4200D001207047342C014000F078BA17
:10221000054A002903D01168014311607047116815
:1022200081431160704700003C2C01402DE9FC5FA8
:102230000121FC20FFF70CFF02208DF804008DF82F
:10224000050000208DF806008DF8070001200090A1
:102250006946D148FFF758F90C220021CE48FFF714
:1022600091F9022000906946CB48FFF74DF90C2206
:102270000121C948FFF786F9042000906946C64845
:10228000FFF742F90C220221C348FFF77BF908202F
:1022900000906946C048FFF737F90C220321BE4879
:1022A000FFF770F9102700976946BB48FFF72CF934
:1022B0000C220421B848FFF765F94FF02008CDF84B
:1022C00000806946B448FFF71FF90C220521B24887
:1022D000FFF758F94FF48059CDF800906946AE48A1
:1022E000FFF712F90C221146AB48FFF74BF94FF4F8
:1022F000005ACDF800A06946A748FFF705F90C225F
:102300000D21A548FFF73EF9BD0200956946A24898
:10231000FFF7FAF80C220E219F48FFF733F96C0003
:10232000009469469C48FFF7EFF80C220F219A4869
:10233000FFF728F90120009069469848FFF7E4F874
:102340000C2200219548FFF71DF9022000906946F4
:102350009248FFF7D9F80C2201219048FFF712F9B3
:10236000009569468E48FFF7CFF80C220E218C4865
:10237000FFF708F9009469468948FFF7C5F80C2271
:102380000F218748FFF7FEF8012000906946844836
:10239000FFF7BAF80C2200218148FFF7F3F802207A
:1023A000009069467E48FFF7AFF80C2201217C4877
:1023B000FFF7E8F84FF0800BCDF800B06946794898
:1023C000FFF7A2F80C2207217648FFF7DBF8E611A9
:1023D000009669467348FFF797F80C220821714868
:1023E000FFF7D0F8A011009069466E48FFF78CF80F
:1023F0000C2209216B48FFF7C5F86011009069466F
:102400006848FFF781F80C220A216648FFF7BAF8FE
:102410002011009069466348FFF776F80C220B21E3
:102420006048FFF7AFF8CDF8009069465D48FFF7C8
:102430006BF80C2211465B48FFF7A4F8CDF800A01A
:1024400069465848FFF760F80C220D215548FFF700
:1024500099F8009569465348FFF756F80C220E216B
:102460005048FFF78FF8009469464E48FFF74CF844
:102470000C220F214B48FFF785F800966946484823
:10248000FFF742F80C2208214548FFF77BF8A0111E
:10249000009069464248FFF737F80C22092140486E
:1024A000FFF770F86011009069463D48FFF72CF87F
:1024B0000C220A213A48FFF765F8402000903A4D77
:1024C00069462846FFF720F80C2206212846FFF728
:1024D00059F8009769463148FFF716F80C22042195
:1024E0002E48FFF74FF8CDF8008069462B48FFF7DC
:1024F0000BF80C2205212948FFF744F80120009031
:102500002A4F69463846FEF7FFFF0C220021384665
:10251000FFF738F82011009069461F48FEF7F4FFD6
:102520000C220B211C48FFF72DF8009469461B482C
:10253000FEF7EAFF0C220F211848FFF723F8009658
:1025400069461648FEF7E0FF0C2208211348FFF702
:1025500019F8CDF800B069462846FEF7D5FF0C22E1
:1025600007212846FFF70EF80220009069460D4823
:10257000FEF7CAFF0C2201210A48FFF703F80120E9
:10258000009069460748FEF7BFFF0C22002105486E
:10259000FEF7F8FFBDE8FC9F00140240001802405F
:1025A000000C024000100240001C024000080240E3
:1025B00000B593B0FFF73AFE01210846FFF764FD2E
:1025C00002200190072202920421039104920590B7
:1025D0000690079001200890002009900A91102190
:1025E0000B9140210C914FF4C0710D910E904FF45E
:1025F00000610F9110908800119001A8129008A816
:10260000FEF754FE00F002F813B000BD2DE9FF41C3
:1026100001250095082601960295002403942021A7
:102620000120FEF718FE0028F9D16846FEF72EFEBD
:102630000A2000F041F802200090019602950394D0
:1026400020210120FEF707FE0028F9D16846FEF799
:102650001DFE032000900196042702970394202179
:102660000120FEF7F8FD0028F9D16846FEF70EFEBE
:1026700020210120FEF7EFFD0028F9D16846FEF782
:1026800005FE40F23120009701960295039020212B
:102690000120FEF7E0FD0028F9D16846FEF7F6FDBF
:1026A00040F26A50FEF786FE20210120FEF7D3FD9E
:1026B0000028F9D1BDE8FF8101B581B00549019835
:1026C0004843009002E00098401E009000980028C7
:1026D000F9D10CBDA08601000748006810F0C05F6A
:1026E00008D006490120486103484FF0C2515830D4
:1026F000FEF716BC70470000006402402C0000206A
:1027000070B54FF480752846FFF776FD214C38B13F
:10271000002020702846FFF769FD0120206132E08B
:102720000220FFF769FD28B10220FFF75FFD0220BC
:10273000207028E00820FFF75FFD28B10820FFF790
:1027400055FD042020701EE02020FFF755FD28B124
:102750002020FFF74BFD0620207014E01020FFF72B
:102760004BFD28B11020FFF741FD052020700AE045
:102770004FF400752846FFF73FFD20B12846FFF7CC
:1027800035FD0720207000214CF23A30FFF740FD64
:10279000207870BD2C000020704700001CB500217F
:1027A000019100912E4A106840F4803010604FF47F
:1027B000A043106800F4003000900198401C019084
:1027C000009810B901989842F3D11068800302D59F
:1027D0000120009000E00091009801283FD120489E
:1027E0004030016841F0805101601E49086840F4A2
:1027F000404008601A48083003680360036843F4E7
:1028000000430360036843F4A0530360041F164BA6
:102810002360136843F08073136013689B01FCD539
:102820000A6842F480320A604A68D203FCD50A681A
:1028300042F400320A604A689203FCD50B4A40F227
:1028400005711160016821F003010160016841F028
:10285000020101600168C1F381010229FAD11CBDA6
:102860000038024000700040195A4007003C024006
:102870007047000010B50F48016841F00101016088
:102880000C4A00210832116002680B4B1A400260AA
:10289000031D0A4A1A60026822F480220260054879
:1028A0000C300160FFF77AFF05494FF000600860C7
:1028B00010BD000000380240FFFFF6FE103000247B
:1028C00008ED00E0002904D0818941F400518181A4
:1028D0007047818921F4005181817047002A03D01B
:1028E000828A0A4382827047828A8A438282704740
:1028F0000246002012880A4200D0012070470000E2
:102900007FB504460D46208A20F44051E8880843EC
:102910002082A08941F20C618843A9882A89114349
:102920006A8902431143A181A08A20F44071A889D9
:102930000843A0826846FFF7D1FB1E48844202D0BC
:102940001D48844201D1039800E00298A18909043E
:1029500008D500EBC00101EB001029684900B0FB6D
:10296000F1F007E000EBC00101EB001029688900DD
:10297000B0FBF1F06422B0FBF2F109010B096FF03A
:1029800018056B4300EB8300A3891D044FF032034D
:1029900007D503EBC000B0FBF2F000F007000843DE
:1029A00006E003EB0010B0FBF2F000F00F0008436C
:1029B00020817FBD0010014000140140C1F30801D7
:1029C00081807047FEE700007CB501214020FFF7C1
:1029D0003FFB4FF40074009401208DF804000020A8
:1029E0008DF8060002228DF807208DF80500054DB0
:1029F00069462846FEF788FD21462846FEF7D2FDA7
:102A00007CBD0000001802400FB4054B10B503A9AF
:102A1000044A029800F04CF910BC5DF814FB000069
:102A200001340008880000200FB4084B10B504A939
:102A300002AA039800F03CF9044602A9002000F025
:102A4000D9FC204610BC5DF814FB0000F5330008EB
:102A50007CB5491E1C461546CDE90001044B6A466B
:102A60002146284600F024F9009A002111707CBD0F
:102A7000DF330008004870479400002002E008C8D7
:102A8000121F08C1002AFAD170477047002001E0E8
:102A900001C1121F002AFBD1704700002DE9FF5F22
:102AA000DDE90220010DDDF838B0024318D044F60C
:102AB0001050A1F2FF3141430D140F98012820D08E
:102AC000A5EB0B00401C5FEA000A4FF00004474EE4
:102AD000DFF81C91A046504616D5CAF1000728E041
:102AE0000F98012443A2012808D0002100980F9BD1
:102AF000C0E90021C0E90243BDE8FF9F6FEA0B0176
:102B0000F4E7CBF10000DEE7074612E0F80707D054
:102B10002246334640464946FDF7C4FC8046894676
:102B20002246334610461946FDF7BCFC04460E46C5
:102B30007F10002FEAD1DDE90201BAF1000F424611
:102B40004B4602DAFDF7AEFC01E0FDF71DFD044641
:102B50000E460022284BFDF7B7FD03D84FF0FF309B
:102B6000014607E00022254B20463146FDF7F3FBE6
:102B7000FDF73AFF102409E0002C0ADB0A220023AB
:102B8000FDF730FB019B30321A55641E50EA0102FA
:102B9000F2D1641C019AC4F1110314440F9A012A62
:102BA00003D0012208430DD10AE0084304D00020DD
:102BB0004FF0110B0F9080E7A3EB0B056D1E0DE09E
:102BC0005B4504DD4FF0000205F1010504E003DA86
:102BD0004FF00002A5F10105002AECD000980F99F2
:102BE000C0E90231C0E9004586E70000000024404A
:102BF0000000F03F300000000000F0430000E03F24
:102C000030380A2801D201207047002070470000A8
:102C1000FEB5002402F114052E1F331F06290BD028
:102C2000082914D0092912D00A2910D010A001F0C7
:102C3000FFF9CCB10020FEBDCDE9006515A202F080
:102C40004DFB032801D00024F3E70124F1E71832FB
:102C5000CDE90065029212A202F040FB042801D0E7
:102C60000024E6E70124E4E74FF0FF30FEBD00005A
:102C70005061727365206F662074696D652065729E
:102C8000726F722028666F726D6174206572726F48
:102C90007229210025326425326425326400000047
:102CA0002532642532642532642E2564000000003C
:102CB0002DE9FF4F95B09B468946064600250FE259
:102CC000252877D100242746F84A0121059400E001
:102CD000044316F8013F203B01FA03F01042F7D1FC
:102CE00030782A2811D06FF02F033078A0F130020D
:102CF000092A16D8059A44F0020402EB820203EB7B
:102D000042021044761C0590EFE759F8042B059217
:102D1000002A03DA504244F40054059044F00204BF
:102D2000761C30782E2816D116F8010F44F00404D2
:102D30002A280DD06FF02F023078A0F13003092B34
:102D400009D807EB870302EB4303C718761CF3E7A8
:102D500059F8047B761C30786C280FD006DC4C28A0
:102D600017D068280DD06A2814D104E0742810D038
:102D70007A280FD10DE044F400140AE044F48014E2
:102D800001E044F440147278824202D104F58014C8
:102D9000761C761C307866280BD013DC582877D048
:102DA00009DC002875D04528F6D04628F4D04728FD
:102DB0001AD19DE118E0632835D0642879D06528C0
:102DC00012D195E1702873D008DC6728F1D069280A
:102DD0006FD06E280DD06F2806D1B5E073282CD0A7
:102DE000752875D0782874D05A46179990476D1C6D
:102DF00075E1C4F30250022809D003280DD0D9F898
:102E0000001004280DD00D6009F1040967E1D9F81C
:102E10000010EA17C1E90052F6E7D9F800100D805A
:102E2000F2E70D70F0E719F8041B8DF80010002090
:102E30008DF80100EA46012003E059F804AB4FF099
:102E4000FF3061074FF0000102D40DE008F10101ED
:102E50008846B9420FDA8045F8DB1AF808100029D5
:102E6000F4D108E008F1010188468142FADB1AF842
:102E700008100029F6D105985B46A0EB080721460B
:102E80003846179A00F094FA284400EB080507E04A
:102E90004DE029E10DE01AF8010B5A4617999047C9
:102EA000B8F10108F7D25B4621463846179A13E17C
:102EB00042E00A220092C4F302524FF0000A022AB2
:102EC00008D059F804CB032A4FEAEC710AD00DE080
:102ED00029E02AE009F1070121F00702F2E802C126
:102EE000914609E00FFA8CFC4FEAEC71042A03D1F9
:102EF0004FFA8CFC4FEAEC71002907DA0A460021F0
:102F0000DCF1000C61EB02012D2202E0220504D568
:102F10002B228DF80420012203E0E20701D02022B9
:102F2000F7E7904659E00A2102E010220DE0102157
:102F30004FF0000A00910BE010224FF0000A44F01D
:102F400004040827009203E008224FF0000A0092D0
:102F5000C4F30252022A05D059F804CB0021032AF7
:102F600008D009E009F1070121F00702F2E802C1E7
:102F7000914605E01FFA8CFC042A01D10CF0FF0CED
:102F80004FF00008220728D5702806D0009B83F058
:102F9000100353EA0A0305D00EE040228DF8042006
:102FA000012208E05CEA010206D030228DF80420FC
:102FB0008DF8050002229046009B83F0080353EA37
:102FC0000A030AD15CEA010201D1620705D5302269
:102FD0008DF804204FF001087F1E582804D034A03B
:102FE00003900EA802900DE036A0F9E75346604624
:102FF000009AFDF7F7F884460398825C0298401E19
:10300000029002705CEA0100F0D1029806A9081A49
:1030100000F1200A600702D524F4803400E0012783
:10302000574502DDA7EB0A0000E0002000EB0A0193
:10303000009005984144401A0590E00306D45B4691
:103040002146179A059800F0B3F90544002706E0D9
:1030500001A85A46C05D179990476D1C7F1C4745D3
:10306000F6DBE0030CD55B462146179A059800F085
:103070009FF9054404E030205A46179990476D1C8B
:103080000099481E00900029F5DC08E0029802999A
:103090005A460078491C0291179990476D1CBAF165
:1030A0000001AAF1010AF1DC65E100000928010034
:1030B00030313233343536373839616263646566AE
:1030C0000000000030313233343536373839414270
:1030D000434445460000000000F058F90544761CC2
:1030E000307800287FF4ECAD19B02846BDE8F08FA9
:1030F000620700D4062709F1070222F0070CFCE85A
:103100000223E14603F000485FEA080C02D00FF208
:10311000702C0DE05FEA045C02D50FF2682C07E02A
:103120005FEAC47C02D00FF2602C01E0AFF2700CB9
:103130004FF0FF3823F00043CDF850C065280CD085
:1031400006DC452809D046281DD047283DD13DE062
:10315000662818D067287ED138E00021112F01DBC6
:10316000112000E0781CCDE9000106A90EA8FFF7A8
:1031700095FCDDE90F010E9A03910021009207F101
:10318000010A04914DE04FF000400097CDE9011095
:1031900006A90EA8FFF782FCDDE90F0203920E9B41
:1031A00011990022DDF80CA00093049211B9791C4A
:1031B00000EB010AB7EB0A0004D4C0F1FF3007F1BD
:1031C000010A0490AAEB0700019044E0012F00DA05
:1031D00001270021112F01DD112000E03846CDE943
:1031E000000106A90EA8FFF759FCDDE90F010E9AB0
:1031F0000391002104910092BA4621070CD403994F
:10320000514500DA8A46BAF1010F05DD009AAAF1AC
:103210000101515C302908D0B84202DA10F1040FE4
:1032200006DA0121CDE9011015E0AAF10101E9E773
:10323000002805DC049901440491AAEB000102E096
:10324000411C514500DD8A460499401A401C0190FA
:103250004FF000400290200704D40198504501DB54
:10326000CDF8048000208DF84F0002980DF14F0733
:10327000B0F1004F25D02B200E9002984FF002089D
:1032800000280CDA404202902D200E9007E00A211F
:103290000298FDF731FA3031029007F8011DB8F1BC
:1032A0000001A8F10108F2DC02980028EFD1791E94
:1032B0000E980870307800F0200040F0450007F8C4
:1032C000020D12A8C01B00F107081498007800B185
:1032D000012000EB0A01019801EBE07105984144DF
:1032E000401A401E0590E00306D45B462146179A1B
:1032F000059800F05DF805441498007818B15A4616
:10330000179990476D1CE00324D55B462146179A18
:10331000059800F04DF805441CE00498002807DBF0
:10332000DDE90301884203DD0098405C179901E064
:10333000179930205A469047049805F10105401C22
:1033400004900198401E019004D12E205A461799EE
:1033500090476D1CBAF10001AAF1010ADDDC05E01D
:1033600017F8010B5A46179990476D1CB8F10001E8
:10337000A8F10108F4DC5B462146179A0598ABE6F4
:103380002D0000002B000000200000002DE9F0417E
:10339000044600251E461746880404D405E0394635
:1033A0002020B0476D1C641EF9D52846BDE8F08189
:1033B0002DE9F041044600251E469046C80301D57C
:1033C000302700E02027880404D505E04146384630
:1033D000B0476D1C641EF9D52846BDE8F0814A68E7
:1033E000002A06D00A68531C0B6010704868401E03
:1033F000486070470A68531C0B6010707047704734
:1034000070B50446064DE1B22846FFF7D7FA802191
:103410002846FFF76DFA0028F9D0204670BD00005D
:103420000010014010B5002821D0114B0022001FD0
:10343000196803E0814203D80A4649680029F9D196
:1034400052B11368841A9C4204D100681844106079
:10345000104602E0506000E0186039B102680B1AB3
:10346000934203D10B681A4402604968416010BD61
:103470008C00002070B505460E4609A0FFF7C4FA7F
:10348000002405E0295D09A0FFF7BEFA641CA4B280
:10349000B442F7DBBDE8704005A0FFF7B5BA000005
:1034A0000D0A496E666F3A20000000002563000097
:1034B0000A000000FEF77CFCFDF778FEFEF776F8C8
:1034C00016484FF480610180C114018013498014B3
:1034D000891C088012A0FFF797FAFFF775FAFEF72C
:1034E00097FBFEF7D5FB0120FEF79CFC0020FEF7C2
:1034F0002FFC4FF400442046FEF758F90120FEF758
:1035000027FCFF20FEF73CFC2046FEF74FF940F673
:10351000FF70FDF797FE00F011FBFEE7181C02405C
:103520000D0AB1FCBBF020475053C4A3BFE9B2E27F
:10353000CAD4C0FDB3CC0D0A00000000F0B50B30BA
:10354000154D20F007010024144A0FE003688B4258
:103550000BD38B4205D95E1A43184768C3E900674D
:1035600000E04368136002C004E0021D10680028F8
:10357000ECD12046002802D1286808B10020F0BD17
:10358000064A07481060074A121A22F00702C0E9EB
:10359000002401202860D7E7900000208C00002044
:1035A0009C030020981300202DE9F04100263830BC
:1035B00010F8382C4A62D0E91A23C1E90A23D0E96D
:1035C0001C23C1E90C23D0E91E233838C1E90E239E
:1035D00000234FF0010C002200EB83070DE0BC68D4
:1035E00054B102EB820501EB8505D5F870834445A3
:1035F00002D1C5F874C3761C521CD1F86C439442B6
:10360000EDDC5B1C252BE6DBC1F86863086840F045
:1036100080000860BDE8F08170B5D0E900329A42C0
:1036200033DC2523B3EB820F2FDB012A01DA0122E1
:1036300042608268C1F86C234268521E920083681F
:10364000141DA34201DA9D1A00E00425002216E0B1
:1036500043685B1E02EB830302EB820403EB8303EC
:1036600000EB840401EB830303F55C73E6681E60E2
:1036700066699E60A669DE60E4691C61521CAA420C
:10368000E6DB086840F04000086070BDC2680A616F
:1036900002694A6142698A618269CA61C26B0A62CF
:1036A000D0E91223C1E90C23D0E91423C1E9142382
:1036B00090F828204E2A16D0D0E9082383F0004342
:1036C000C1E9102390F83820452A0FD0D0E90C2307
:1036D00083F00043C1E91223006CC867086840F416
:1036E000805008607047D0E90823E9E7D0E90C234F
:1036F000F0E790F83820412A02D0562A09D00CE091
:103700000B6A022203B90A624B6A012B05D14A6295
:1037100003E000220A6201224A62027A4E2A1FD086
:10372000D0E9002383F00043C1E91023027E452A3B
:1037300019D0D0E9042383F00043C1E91223826A3F
:103740000A61C26A4A61026B8A61426BCA6190F87F
:10375000390081F87800086840F40070086070470C
:10376000D0E90023E0E7D0E90423E6E770B5054699
:103770000C46287F412802D0562809D00CE0216A47
:10378000022001B92062616A012905D1606203E06B
:1037900000202062012060621C222946201DFCF7C7
:1037A00060FD95F828004E2828D0D5E9080181F061
:1037B0000041C4E9100195F83800452821D0D5E929
:1037C0000C0181F00041C4E91201D5E91001C4E9FE
:1037D0001601D5E910010C4A0C4BFCF763FEC4E955
:1037E0001801D5E91201C4E91A0195F8590084F8C5
:1037F0007800206840F40060206070BDD5E90801C1
:10380000D7E7D5E90C01DEE76F1283C0CAA1FD3FFF
:10381000D0E90023C1E91A23D0E90423C1E91C231C
:10382000D0E90823C1E91623D0E90C23C1E9182304
:1038300090F8390081F87800086840F480600860EA
:10384000704710B50C4601461C22201DFCF709FDEF
:10385000206840F48070206010BDC2680A6102696F
:103860004A6142698A618269CA61C26B0A62D0E9AF
:103870001223C1E90C23D0E91423C1E9142390F8E1
:1038800028204E2A14D0D0E9082383F00043C1E950
:10389000102390F83820452A0DD0D0E90C2080F074
:1038A0000040C1E91220086840F00100086070473C
:1038B000D0E90823EBE7D0E90C20F2E72DE9F0414D
:1038C0000026383050F8342C4A62D0E91A23C1E976
:1038D0000A23D0E91C23C1E90C23D0E91E23383880
:1038E000C1E90E2300234FF0010C002200EB8307F7
:1038F0000DE0BC6854B102EB820501EB8505D5F8FB
:103900008480444502D1C5F888C0761C521CD1F889
:1039100080409442EDDC5B1C252BE6DBCE6708681B
:1039200040F002000860BDE8F08170B5D0E90032D7
:103930009A4232DC2523B3EB820F2EDB012A01DA17
:10394000012242608268C1F880204268521E9200C3
:103950008368141DA34201DA9D1A00E004250022A9
:1039600015E043685B1E02EB830302EB820400EB6D
:10397000840403EB830301EB8303E66843F8846F5D
:1039800066699E60A669DE60E4691C61521CAA42F9
:10399000E7DB086840F00400086070BD70B50546BC
:1039A0000C46287F412802D0562809D00CE0216A15
:1039B000022001B92062616A012905D1606203E039
:1039C00000202062012060621C222946201DFCF795
:1039D00048FC95F828004E2820D0D5E9080181F050
:1039E0000041C4E9100195F83800452819D0D5E9FF
:1039F0000C0181F00041C4E91201D5E910010A4A25
:103A00000A4BFCF74FFDC4E91801D5E91201C4E9DE
:103A10001A01206840F00800206070BDD5E9080157
:103A2000DFE7D5E90C01E6E76F1283C0CAA1FD3FCD
:103A30008068C1F854060E4AC1F85826002809D0FB
:103A400001280BD002280DD007280FD1114609A05C
:103A500000F04BBB06490CA000F047BB04490EA088
:103A600000F043BB024911A000F03FBB70470000CB
:103A7000980200204750545854207573657220698D
:103A80006E666F3A20257300475054585420657273
:103A9000726F723A20257300475054585420776152
:103AA000726E696E673A20257300000047505458C3
:103AB00054206E6F746963653A202573000000001E
:103AC000D0E90023C1E91A23D0E90423C1E91C236A
:103AD000426B006BC1E91802086840F010000860F2
:103AE000704710B5C2B003460C4600200146FF2CBB
:103AF0000BDC2246194601A8FCF7B3FB01A9002004
:103B0000085541A901A801F0EBFC42B010BD30B549
:103B1000C1B003460C4615460020FF2C0CDC2246A3
:103B200019466846FCF79DFB00200DF804002A4664
:103B300040A96846FCF7D7FB41B030BDADF5E16D5B
:103B400000240120FEF704F9FF20FEF719F94FF4D5
:103B500000452846FDF72AFE29464FF47C40FEF733
:103B6000EBF8FEF74FF8C088A2A1FDF765FEFEF75F
:103B700049F8C0884FF6FF7909EA4000A3A1FDF794
:103B80005BFE01F0A7FBA549016001F0A3FBA4497E
:103B9000416001F09FFBA34981602AA801F091FCDC
:103BA00025A801F047F9DFF880A2DFF880B2A0462F
:103BB0009AF8000050B12AAB4FF480729C4925A8B6
:103BC00000F062FB8AF8008001240CE09BF8000002
:103BD00048B12AAB4FF48072964925A800F054FBF7
:103BE0008BF800800124002CE2D0012308221EA9BA
:103BF0002BA8FDF7E7FBDDE921122398CDE90012A0
:103C000002901EA98CA00EC901F26C71FEF7FCFE99
:103C1000DDE93A0100F088FA06460F46DDE93C018D
:103C200000F082FA04460D4632463B468AA0CDE9B2
:103C30000045FEF7E9FEDDE93E238CA0FEF7E4FE39
:103C40008FA0439B429AFEF7DFFE92A0459B449AC9
:103C5000FEF7DAFE93A04A9A4999FEF7D5FE0DF5D4
:103C600082619AA006C9FEF7CFFEDDE93801CDE9F1
:103C70000201DDE93601DDE93423CDE900019EA032
:103C8000FEF7C2FE48F21F00FEF774F8FDF7BAFF18
:103C9000C088A1A100EB800080B2FDF7CDFD4846B1
:103CA000FEF768F8DDE92023DDE92210CDE90023E5
:103CB000CDE90210DDE91E2302F26C7299A105A87C
:103CC000FEF7B2FEFDF79EFFC08805A900EB40009D
:103CD00009EA4000FDF7B0FD32463B469CA105A82D
:103CE000FEF7A2FEFDF78EFFC08805A9C0EBC0005D
:103CF00080B2FDF7A1FD22462B469AA105A8FEF74A
:103D000093FEFDF77FFFC08805A909EAC000FDF713
:103D100093FD99A105A8499AFEF786FEFDF772FF6B
:103D2000C08805A900EBC00080B2FDF785FD9AA10F
:103D300005A84A9AFEF778FEFDF764FFC08805A93A
:103D400000EB800009EA4000FDF776FD99A105A887
:103D5000DDF81024FEF768FEFDF754FFC08800EB85
:103D6000400101EBC00080B205A9FDF765FD99A1F6
:103D700005A8DDF81424FEF757FEFDF743FFC088C1
:103D800005A900EB400009EA8000FDF755FDDDE9DB
:103D90003E2397A105A8FEF747FEFDF733FFC08835
:103DA00000EB800101EBC00080B205A9FDF744FDE6
:103DB00094A105A8439B429AFEF736FEFDF722FF29
:103DC000C08805A9C0EBC00009EA4000FDF734FD3A
:103DD00091A105A8459B449AFEF726FEFDF712FF28
:103DE000C08805A9C0EB001080B2FDF725FD0024B6
:103DF000DEE600002057696C6466697265205354E2
:103E00004D33322D46343239000000002020475017
:103E100053206D6F64756C6500000000FD54000850
:103E2000FF33000875340008290000202800002016
:103E300098000020980100200D0ACAB1BCE4256456
:103E40002D253032642D253032642C25643A2564CA
:103E50003A25640D0A0000000D0ACEB3B6C8A3BA15
:103E600025662CBEADB6C825660D0A000D0ABAA39C
:103E7000B0CEB8DFB6C8A3BA256620C3D7200000ED
:103E80000D0ACBD9B6C8A3BA2566206B6D2F682062
:103E9000000000000D0ABABDCFF2A3BA256620B615
:103EA000C80000000D0AD5FDD4DACAB9D3C3B5C421
:103EB000475053CEC0D0C7A3BA25642CBFC9BCFBA2
:103EC000475053CEC0D0C7A3BA2564000D0AD5FD14
:103ED000D4DACAB9D3C3B5C4B1B1B6B7CEC0D0C7AE
:103EE000A3BA25642CBFC9BCFBB1B1B6B7CEC0D054
:103EF000C7A3BA25640000000D0A50444F50A3BA6E
:103F000025662C48444F50A3BA2566A3AC56444FAF
:103F100050A3BA25660000002047505320496E6622
:103F20006F3A000020446174653A253034642F25CF
:103F30003032642F253032642054696D653A253063
:103F400032643A253032643A253032640000000091
:103F5000206C61746974756465203A252E3666207C
:103F600000000000206C6F6E676974756465203A0C
:103F7000252E366600000000204750532020536154
:103F800074656C6C69746520696E20757365203A80
:103F900025326420000000002047505320536174F4
:103FA000656C6C69746520696E2076696577203A66
:103FB00025326400204244532020536174656C6CA8
:103FC00069746520696E20757365203A2532642016
:103FD000000000002042445320536174656C6C69FA
:103FE000746520696E2076696577203A2532640011
:103FF00020416C7469747564653A25342E326620EC
:104000006D0000002073706565643A25342E3266B9
:10401000206B6D2F6800000020547261636B20617B
:104020006E676C653A25332E326620646567000042
:104030000FB410B5ADF5816D01F04CF94468002C5A
:1040400010D00DF2144340F2FF3101A8DDF8102426
:10405000FEF7FEFC01460020CDF80404002901DD36
:1040600001A8A0470DF5816D10BC5DF814FB2DE98A
:10407000F04704468846174604EB08060020002552
:104080004FF0FF39C7F800900BE02378242B02D1C2
:1040900008B1002407E02A2B0DD000B15D40641C5C
:1040A000401CB442F1D33968002902DA002C00D058
:1040B0000020BDE8F087611DB142F4D8E1780D29F8
:1040C000F1D121790A29EED110220221601CFFF7DB
:1040D0001EFD01463860301BA8EB0000401DA942C0
:1040E000E1D0C7F800900024DDE70FB410B5ADF5BE
:1040F000816D01F0EFF88468002C10D00DF21443AC
:1041000040F2FF3101A8DDF81024FEF7A1FC0146C2
:104110000020CDF80404002901DD01A8A0470DF519
:10412000816D10BC5DF814FB2DE9F04104460D468D
:10413000DFF848800022434620462946FCF724FA4F
:10414000FCF7A2FAFCF78FFA06460F460022434618
:1041500030463946FCF7A6F922462B46FCF79FF974
:104160000022074BFCF710FA32463B46FCF7F3F807
:1041700004460D4620462946BDE8F081000059401E
:1041800000004E4070B50546052901DA002070BDDB
:104190003C4C052228462168FCF798F800284FD0AF
:1041A000052228466168FCF791F800284AD00522CC
:1041B0002846A168FCF78AF8E8B305222846E1689A
:1041C000FCF784F8C0B3052228462169FCF77EF885
:1041D00098B3052228466169FCF778F870B3052288
:1041E0002846A169FCF772F848B305222846E16920
:1041F000FCF76CF880B305222846216AFCF766F8C4
:1042000058B305222846616AFCF760F868B30522B6
:104210002846A16AFCF75AF850B305222846E16AFD
:10422000FCF754F838B305222846216BFCF74EF80A
:1042300020B3002070BD07E008E009E00AE00DE0CF
:104240000120F7E70220F5E70420F3E70820F1E773
:104250001020EFE72020EDE702E003E04020E9E74F
:104260008020E7E74FF48070E4E74FF40070E1E767
:104270004FF48060DEE74FF40060DBE74FF48050DE
:10428000D8E7000054000020F8B506461D4600247B
:1042900000200090304600F007FE69E0641C4028D2
:1042A00055D00EDC08282FD006DC01281DD00228AE
:1042B00020D0042859D122E010282AD0202854D117
:1042C0004FE0B0F5806F33D008DC802844D0B0F5E3
:1042D000807F32D0B0F5007F47D133E0B0F5006F7A
:1042E00021D0B0F5805F40D118E029460098FFF753
:1042F000B4FA3AE029460098FFF7E0FA35E029469B
:104300000098FFF712FB30E029460098FFF746FBC4
:104310002BE029460098FFF7D3FB26E029460098BA
:10432000FFF7B4F921E029460098FFF71FFA1CE0D7
:1043300029460098FFF76CFA17E029460098FFF726
:1043400080FA12E029460098FFF7D3F90DE02946DC
:104350000098FFF761F908E029460098FFF724F973
:1043600003E029460098FFF763FB0098FFF75AF82F
:104370006946304600F086FD00288FD12046F8BD02
:1043800070B590B005460E461446B8212046FBF79E
:1043900081FF3146284601F086F804F1B00004F1AF
:1043A000A801CDE90E108038011F04F1A00204F12C
:1043B0003403CDE90C320A1FCDE90A101038011F71
:1043C000131FCDE908320A1FCDE906101038131F5C
:1043D000011FCDE904320A1F231DCDE90032CDE9CA
:1043E0000210234607A23146284600F077FF112825
:1043F00005D013A0FFF71CFE002010B070BD0120F7
:10440000FBE700002442444753412C25432C2564FC
:104410002C25642C25642C25642C25642C25642CE7
:1044200025642C25642C25642C25642C25642C25DE
:10443000642C25642C25662C25662C25662A000014
:104440004244475341207061727365206572726FF8
:104450007221000070B592B005460E4614465C21EC
:104460002046FBF717FF3146284601F01CF804F1FF
:104470005800011F0A1FCDE91010143804F1480339
:10448000011FCDE90E320A1FCDE90C101438143B80
:10449000011FCDE90A320A1FCDE908101438143B78
:1044A000011FCDE906320A1FCDE90410143B143870
:1044B000211DCDE90232CDE9001023460E4A3146D6
:1044C000284600F00BFF6168491E8900A2680B1D99
:1044D0009A4201DA511A00E00421032202EB810121
:1044E000884201DB132805DD04A0FFF7A1FD0020B1
:1044F00012B070BD0120FBE75467000842444753E7
:1045000056207061727365206572726F72210000AF
:1045100070B5CEB005460E46144680212046FBF706
:10452000B9FE3146284600F0BEFF04F1680204F1EE
:104530006003CDE9093204F1780004F17001CDE99E
:104540000B10203A203BCDE9053220382039CDE947
:104550000710183A183BCDE901321C38011FCDE98C
:1045600003101C3800900EAB0EA23146284600F016
:10457000B5FE0E2805D018A0FFF75AFD00204EB05A
:1045800070BD0EA8FBF791FE014622460EA8FEF76D
:104590003FFB20B115A0FFF74BFD0020EFE7012006
:1045A000EDE7000024474E4747412C25732C256634
:1045B0002C25432C25662C25432C25642C25642C86
:1045C00025662C25662C25432C25662C25432C2579
:1045D000662C25642A000000474E47474120706141
:1045E000727365206572726F72210000474E4747F3
:1045F000412074696D652070617273652065727207
:104600006F72210070B5C6B005460E4614464021B3
:104610002046FBF73FFE3146284600F044FF04F1F8
:104620003900411ECDE9041029383039CDE9001098
:1046300006AB04F11802CDE9022323460EA231464F
:10464000284600F04BFE072805D013A0FFF7F0FC2A
:10465000002046B070BD06A8FBF727FE014604F116
:104660001C0206A8FEF7D4FA20B110A0FFF7E0FC68
:104670000020EEE70120ECE724474E474C4C2C2568
:10468000662C25432C25662C25432C25732C25438D
:104690002C25432A00000000474E474C4C207061F7
:1046A000727365206572726F72210000474E474C2D
:1046B0004C2074696D65207061727365206572723B
:1046C0006F72210070B5CEB005460E4614466021CB
:1046D0002046FBF7DFFD3146284600F0E4FE04F1FA
:1046E0005002CDE9094204F15900411ECDE90B10F9
:1046F000083A04F14003CDE90532201D011DCDE942
:104700000710203A203BCDE9013234302831CDE981
:1047100003101C3800900EAB10A23146284600F062
:10472000DDFD0D2807D00E2805D019A0FFF780FC6D
:1047300000204EB070BD0EA8FBF7B7FD0146224623
:104740000EA8FEF765FA20B116A0FFF771FC002055
:10475000EFE72068643020600120EAE724474E52EA
:104760004D432C25732C25432C25662C25432C25C5
:10477000662C25432C25662C25662C253264253293
:10478000642532642C25662C25432C25432A000001
:10479000474E524D43207061727365206572726F8F
:1047A00072210000474E524D432074696D652070A0
:1047B00061727365206572726F72210070B588B086
:1047C00005460E46144640212046FBF763FD314660
:1047D000284600F068FE04F13900411ECDE90610BC
:1047E00004F1300204F12803CDE9043219382039EC
:1047F000203A203BCDE90032CDE90210234611A238
:104800003146284600F06AFD092805D016A0FFF7BA
:104810000FFC002008B070BD207A54280AD1207EF9
:104820004D2807D194F828004E2803D194F8380079
:104830004B2804D011A0FFF7FBFB0020EAE7012082
:10484000E8E7000024474E5654472C25662C2543A4
:104850002C25662C25432C25662C25432C25662CDF
:1048600025432C25432A0000474E565447207061AB
:10487000727365206572726F72210000474E565444
:1048800047207061727365206572726F72202866AE
:104890006F726D6174206572726F72292100000061
:1048A00070B5C8B005460E4614461C212046FBF7DD
:1048B000F1FC3146284600F0F6FD46A947AB201D25
:1048C000CDE90231019045AA001D0492009005AB8C
:1048D00010A23146284600F001FD4799A1F26C7103
:1048E0002160062805D013A0FFF7A2FB002048B0E6
:1048F00070BD05A8FBF7D9FC0146224605A8FEF7C6
:1049000087F920B110A0FFF793FB0020EFE701200B
:10491000EDE7000024474E5A44412C25732C2532E4
:10492000642C2532642C2534642C2532642C2532E9
:10493000642A0000474E5A4441207061727365201A
:104940006572726F72210000474E5A4441207469AB
:104950006D65207061727365206572726F722100DF
:1049600070B5CEB005460E46144680212046FBF7B2
:1049700091FC3146284600F096FD04F1680204F1EE
:104980006003CDE9093204F1780004F17001CDE94A
:104990000B10203A203BCDE9053220382039CDE9F3
:1049A0000710183A183BCDE901321C38011FCDE938
:1049B00003101C3800900EAB0EA23146284600F0C2
:1049C0008DFC0E2805D018A0FFF732FB00204EB05A
:1049D00070BD0EA8FBF769FC014622460EA8FEF743
:1049E00017F920B115A0FFF723FB0020EFE7012006
:1049F000EDE700002447504747412C25732C2566DE
:104A00002C25432C25662C25432C25642C25642C31
:104A100025662C25662C25432C25662C25432C2524
:104A2000662C25642A0000004750474741207061EA
:104A3000727365206572726F72210000475047479C
:104A4000412074696D6520706172736520657272B2
:104A50006F72210070B590B005460E461446B8211D
:104A60002046FBF717FC3146284600F01CFD04F1F8
:104A7000B00004F1A801CDE90E108038011F04F147
:104A8000A00204F13403CDE90C320A1FCDE90A106B
:104A90001038011F131FCDE908320A1FCDE9061097
:104AA0001038131F011FCDE904320A1F231DCDE961
:104AB0000032CDE90210234607A23146284600F015
:104AC0000DFC112805D013A0FFF7B2FA002010B09A
:104AD00070BD0120FBE700002447504753412C25BF
:104AE000432C25642C25642C25642C25642C2564FA
:104AF0002C25642C25642C25642C25642C25642C01
:104B000025642C25642C25642C25662C25662C25F3
:104B1000662A000047504753412070617273652038
:104B20006572726F7221000070B592B005460E4634
:104B300014465C212046FBF7ADFB3146284600F0C9
:104B4000B2FC04F15800011F0A1FCDE910101438FF
:104B500004F14803011FCDE90E320A1FCDE90C1004
:104B60001438143B011FCDE90A320A1FCDE90810A1
:104B70001438143B011FCDE906320A1FCDE9041099
:104B8000143B1438211DCDE90232CDE90010234633
:104B90000E4A3146284600F0A1FB6168491E890093
:104BA000A2680B1D9A4201DA511A00E00421032287
:104BB00002EB8101884201DB132805DD04A0FFF729
:104BC00037FA002012B070BD0120FBE7986700089B
:104BD0004750475356207061727365206572726F3B
:104BE0007221000070B5CEB005460E461446602115
:104BF0002046FBF74FFB3146284600F054FC04F1F9
:104C00005002CDE9094204F15900411ECDE90B10D3
:104C1000083A04F14003CDE90532201D011DCDE91C
:104C20000710203A203BCDE9013234302831CDE95C
:104C300003101C3800900EAB10A23146284600F03D
:104C40004DFB0D2807D00E2805D019A0FFF7F0F96D
:104C500000204EB070BD0EA8FBF727FB0146224690
:104C60000EA8FDF7D5FF20B116A0FFF7E1F900204F
:104C7000EFE72068643020600120EAE724475052C3
:104C80004D432C25732C25432C25662C25432C25A0
:104C9000662C25432C25662C25662C25326425326E
:104CA000642532642C25662C25432C25432A0000DC
:104CB0004750524D43207061727365206572726F68
:104CC000722100004750524D432074696D65207079
:104CD00061727365206572726F722100FEB50546C0
:104CE0000E461446002222606260A26031462846C9
:104CF00000F0D9FB0A4904F10802CDE90121201D89
:104D00000090234607A23146284600F0E7FA04281F
:104D100004D00AA0FFF78CF90020FEBD0120FEBDE3
:104D2000980200202447505458542C2532642C25D6
:104D300032642C2532642C25732A000047505458C5
:104D400054207061727365206572726F7221000069
:104D500070B588B005460E46144640212046FBF744
:104D600099FA3146284600F09EFB04F1280204F12E
:104D70002003CDE9033204F1380004F13001CDE91C
:104D800005102039203ACDE9002120380290234631
:104D900010A23146284600F0A1FA082805D015A037
:104DA000FFF746F9002008B070BD207A54280AD1D8
:104DB000207E4D2807D194F828004E2803D194F87E
:104DC00038004B2804D010A0FFF732F90020EAE7A2
:104DD0000120E8E72447505654472C25662C2543EC
:104DE0002C25662C25432C25662C25432C25662C4A
:104DF00025432A004750565447207061727365203E
:104E00006572726F722100004750565447207061DE
:104E1000727365206572726F722028666F726D61A1
:104E200074206572726F72292100000000210161F7
:104E30000120704770B50546002600F04BFAC468A3
:104E4000FF2C01DC4FF4807414212846FBF722FA72
:104E50002046FEF773FBA86018B1EC6001263046CF
:104E600070BD02A0FFF7E4F8F9E70000496E737522
:104E70006666696369656E74206D656D6F72792110
:104E80000000000010B5024600241068002809D078
:104E900043680B6004688168116009B900215160A2
:104EA000FEF7C0FA204610BD2DE9F04107468846BE
:104EB00014460026FD68A54200DB25462A464146E9
:104EC000384600F007F80644641B002CF2D1304647
:104ED000BDE8F0812DE9F84F05460B461446002643
:104EE0002869E9682044884202DB2846FFF79EFFD4
:104EF0002969A868224608441946FBF7B2F92869CF
:104F0000204428614FF4805A002728696A46811B93
:104F1000A8683044FFF7ABF880465FEA080023D06A
:104F2000009800287EDB2869AA68811B701C491E36
:104F30001044FFF727F983460C20FEF7FFFA040020
:104F400071D06760BBF1400F6ED01FDCBBF1080F62
:104F50006BD014DCBBF1010F52D0BBF1020F71D04A
:104F6000BBF1040F6DD18CE036B12869821B2A6138
:104F7000A8688119FBF775F93046BDE8F88FBBF1D9
:104F8000100F7AD0BBF1200FECD163E14FF48069B0
:104F9000CB4573D01CDCBBF1800F70D04FF480790F
:104FA000CB456DD04FF40079CB45DBD14020FEF7E7
:104FB000C5FA60600028C3D0C4F80090A968024612
:104FC0008B1941461846FFF71DFB002874D05EE19F
:104FD0004FF40069CB4570D0D345C3D18020FEF794
:104FE000ADFA60600028ABD0C4F800A0A968024602
:104FF0008B1941461846FFF78BFA002879D046E115
:105000008020FEF79BFA6060002899D00121216082
:10501000A96802468B1941461846FFF7A1FC0028F3
:10502000D5D103E03CE1FBE0E1E047E0606810B18E
:10503000FEF7F8F967602046FEF7F4F9002426E150
:1050400000E020E1B820FEF779FA60600028B2D0D5
:1050500002212160A96802468B1941461846FFF7D4
:10506000F9FC0028B3D1606810B1FEF7DBF9676086
:105070002046FEF7D7F9002409E13BE07AE0D0E0D2
:1050800092E05C20FEF75AFA6060002893D0042179
:105090002160A96802468B1941461846FFF744FD76
:1050A000002894D1606810B1FEF7BCF96760204613
:1050B000FEF7B8F90024EAE08FE040E06020FEF758
:1050C0003DFA606000288ED008212160A968024660
:1050D0008B1941461846FFF785FD00288FD160687F
:1050E00010B1FEF79FF967602046FEF79BF9002498
:1050F000CDE01AE04020FEF721FA6060002884D05D
:1051000010212160A96802468B1941461846FFF715
:105110001FFE002808D1606810B1FEF783F96760B0
:105120002046FEF77FF90024B1E0606810B1FEF779
:1051300079F967602046FEF775F90024A7E0602042
:10514000FEF7FCF9606000286AD0C4F80090A968F6
:1051500002468B1941461846FFF7B4FA002808D1D9
:10516000606810B1FEF75EF967602046FEF75AF9F5
:1051700000248CE04020FEF7E1F9606000284FD069
:10518000C4F80090A96802468B1941461846FFF7FB
:1051900015FB08BB606810B1FEF744F96760204654
:1051A000FEF740F9002472E01C20FEF7C7F96060AA
:1051B000B0B3C4F80090A96802468B19414618465E
:1051C000FFF76EFB40B9606810B1FEF72BF967601E
:1051D0002046FEF727F9002459E0606810B1FEF779
:1051E00021F967602046FEF71DF900244FE05C209E
:1051F000FEF7A4F9606098B140212160A9680246D9
:105200008B1941461846FFF725F910BB606810B1AD
:10521000FEF708F967602046FEF704F9002436E03F
:1052200040E0B820FEF78AF96060D8B380212160A1
:10523000A96802468B1941461846FFF7A1F840B904
:10524000606810B1FEF7EEF867602046FEF7EAF8F6
:1052500000241CE00C20FEF771F9606010B32021DF
:105260002160A96802468B1941461846FFF736FDB2
:1052700068B9606810B1FEF7D5F867602046FEF7A0
:10528000D1F8002403E02046FEF7CCF800243CB11E
:10529000686800B184606C60286800B92C60A76001
:1052A000464432E6FFE714B12046FEF7BBF803A000
:1052B000FEF7BEFE4FF0FF305FE60000496E7375EB
:1052C0006666696369656E74206D656D6F727921BC
:1052D0000000000000487047440000200FB42DE992
:1052E000F84F044667184FF001080025A946AB4661
:1052F0000DA80090BEE0B8F1010F09D0B8F1020F7F
:1053000011D0B8F1030F12D0B8F1040F07D11EE08D
:10531000BAF1250F04D014F8010B504528D1A6E0AE
:105320004FF00208A3E00025B1464FF00308FAF75A
:105330008BFF006810F80A00202877D04E4506D968
:10534000A6EB09010A224846FEF7E1FB0546A24604
:1053500055B90C980178632901D0432904D12178EB
:105360004078814200D001251DB12C44BC420AD9AD
:1053700089E00C98417829B13A1B2046FAF79CFF46
:10538000040000D13C46BC427DD84FF001080BF12F
:10539000010B0026A4EB0A050C980078632812D0B4
:1053A00008DC43280FD0452823D0472821D0532894
:1053B0002AD111E065281CD066281AD0672818D099
:1053C000732821D108E0009840C80090E5B1DEB113
:1053D0009AF80000307017E0009840C800909DB126
:1053E00096B12A4651463046FAF73BFF00207055E9
:1053F0000AE0009840C8009035B12EB129465046C9
:10540000FEF76FFBC6E9000186B9009840C800901E
:1054100066B15DB10C9800786F2822D007DC58285F
:1054200018D0642808D069282DD105E01FE0752820
:1054300009D0782827D10DE00A2229465046FEF7E8
:1054400066FB306013E00A2229465046FEF75FFBF8
:1054500030600CE0102229465046FEF758FB3060C1
:1054600005E0082229465046FEF751FB30600C98B3
:10547000401C0C900C9E96F800A0BAF1000F02D0D0
:10548000BC42FFF438AF5846BDE8F80F5DF814FB96
:10549000722101600021416001228260C1600161CE
:1054A00041618161704710B50346FFF713FF026841
:1054B000002A05D0002903D0BDE810401846104747
:1054C00010BD10B504464FF4CC612046FAF7E2FE59
:1054D000201DFFF7DDFF002020620120606210BD6B
:1054E00000B583B00A460021CDE9001101466846A7
:1054F000FBF7B3F9DDE9000103B000BD7047000020
:10550000000000000000000000000000000000009B
:10551000000000000000000000000000000000008B
:10552000000000000000000000000000000000007B
:105530008001800180018001800180018001800163
:105540008001800180018001800100000000800155
:1055500080010000000000000000000000000000CA
:105560000000CC00CC00CC00CC00CC00CC00000073
:10557000000000000000000000000000000000002B
:10558000000000000000000000000000000000001B
:1055900000000000000000000000600C600C600CC7
:1055A00030063006FE1FFE1F300638071803FE1FA8
:1055B000FE1F180318038C018C018C0100000000F1
:1055C0008000E003F80F9C0E8C1C8C188C00980057
:1055D000F801E007800E801C8C188C189C18B80C01
:1055E000F00FE003800080000000000000000000D9
:1055F000000000000E181B0C110C110611061103FF
:1056000011039B018E01C038C06C6044604430447B
:1056100030441844186C0C380000000000000000F2
:10562000E001F0033807180618063003F001F00017
:10563000F8009C310E33061E061C061C063FFC7348
:10564000F021000000000000000000000000000049
:1056500000000C000C000C000C000C000C00000002
:10566000000000000000000000000000000000003A
:10567000000000000000000000000000000000002A
:10568000000200038001C000C00060006000300024
:10569000300030003000300030003000300060005A
:1056A0006000C000C0008001000300020000000094
:1056B00020006000C000800180010003000300069C
:1056C00000060006000600060006000600060003AD
:1056D000000380018001C000600020000000000085
:1056E00000000000000000000000C000C000D8065C
:1056F000F807E00130033807000000000000000058
:105700000000000000000000000000000000000099
:105710000000000000000000000080018001800106
:1057200080018001FC3FFC3F8001800180018001FD
:1057300080010000000000000000000000000000E8
:105740000000000000000000000000000000000059
:105750000000000000000000000000000000000049
:1057600080018001000100018000000000000000B5
:105770000000000000000000000000000000000029
:10578000000000000000E007E0070000000000004B
:105790000000000000000000000000000000000009
:1057A00000000000000000000000000000000000F9
:1057B00000000000000000000000000000000000E9
:1057C000C000C00000000000000000000000000059
:1057D000000C000C00060006000600030003000396
:1057E0008003800180018001C000C000C000600013
:1057F0006000000000000000000000000000000049
:10580000E003F007380E180C0C180C180C180C18C4
:105810000C180C180C180C180C18180C380EF00773
:10582000E003000000000000000000000000000095
:1058300000018001C001F001980188018001800110
:105840008001800180018001800180018001800150
:1058500080010000000000000000000000000000C7
:10586000E003F80F180C0C180C1800180018000CA6
:10587000000600038001C000600030001800FC1F1B
:10588000FC1F0000000000000000000000000000FD
:10589000E001F807180E0C0C0C0C000C0006C003FD
:1058A000C007000C001800180C180C18180CF8078A
:1058B000E003000000000000000000000000000005
:1058C000000C000E000F000F800DC00C600C600C6F
:1058D000300C180C0C0CFC3FFC3F000C000C000CB6
:1058E000000C0000000000000000000000000000AC
:1058F000F80FF80F180018000C00EC03FC071C0E42
:10590000001C0018001800180C181C0C180EF807C2
:10591000E0030000000000000000000000000000A4
:10592000C007F00F381C181818000C00CC03EC0F3F
:105930003C0E1C1C0C180C180C18181C380EF00708
:10594000E003000000000000000000000000000074
:10595000FC1FFC1F000C00060006000380038001F2
:10596000C001C000E0006000600070003000300046
:1059700030000000000000000000000000000000F7
:10598000E003F007380E180C180C180C3806F00756
:10599000F007180C0C180C180C180C18380CF80F11
:1059A000E003000000000000000000000000000014
:1059B000E003F007380E1C0C0C180C180C181C1CFB
:1059C000381EF81BE0190018000C000C1C0EF8071C
:1059D000F0010000000000000000000000000000D6
:1059E00000000000000000000000800180010000B5
:1059F0000000000000000000000000000000800126
:105A00008001000000000000000000000000000015
:105A10000000000000000000000080018001000084
:105A200000000000000000000000000000008001F5
:105A30008001000100018000000000000000000063
:105A40000000000000000000000000000000001046
:105A5000001C800FE003F8001800F800E003800F3E
:105A6000001C00100000000000000000000000000A
:105A70000000000000000000000000000000F81F0F
:105A8000000000000000F81F0000000000000000FF
:105A90000000000000000000000000000000000006
:105AA00000000000000000000000000000000800EE
:105AB0003800F001C007001F0018001FC007F001E8
:105AC0003800080000000000000000000000000096
:105AD000E003F80F180C0C180C180018000C000646
